{
  "contractName": "MedicineW_D",
  "abi": [
    {
      "inputs": [
        {
          "internalType": "address",
          "name": "_address",
          "type": "address"
        },
        {
          "internalType": "address",
          "name": "Sender",
          "type": "address"
        },
        {
          "internalType": "address",
          "name": "Transporter",
          "type": "address"
        },
        {
          "internalType": "address",
          "name": "Receiver",
          "type": "address"
        }
      ],
      "stateMutability": "nonpayable",
      "type": "constructor"
    },
    {
      "inputs": [
        {
          "internalType": "address",
          "name": "_address",
          "type": "address"
        },
        {
          "internalType": "address",
          "name": "_transporter",
          "type": "address"
        }
      ],
      "name": "pickWD",
      "outputs": [],
      "stateMutability": "nonpayable",
      "type": "function"
    },
    {
      "inputs": [
        {
          "internalType": "address",
          "name": "_address",
          "type": "address"
        },
        {
          "internalType": "address",
          "name": "Receiver",
          "type": "address"
        }
      ],
      "name": "receiveWD",
      "outputs": [],
      "stateMutability": "nonpayable",
      "type": "function"
    },
    {
      "inputs": [],
      "name": "getBatchIDStatus",
      "outputs": [
        {
          "internalType": "uint256",
          "name": "",
          "type": "uint256"
        }
      ],
      "stateMutability": "view",
      "type": "function"
    }
  ],
  "bytecode": "0x608060405234801561001057600080fd5b5060405161041a38038061041a83398101604081905261002f916100b6565b600080546001600160a01b039485166001600160a01b0319918216811790925560018054968616968216969096179095556002805486169091179055600380549284169290941691909117909255600480546001600160a81b0319169290911691909117905561010a565b80516001600160a01b03811681146100b157600080fd5b919050565b600080600080608085870312156100cc57600080fd5b6100d58561009a565b93506100e36020860161009a565b92506100f16040860161009a565b91506100ff6060860161009a565b905092959194509250565b610301806101196000396000f3fe608060405234801561001057600080fd5b50600436106100415760003560e01c8063443c28d814610046578063d2f3fcc71461005b578063d7dcbe3b14610075575b600080fd5b610059610054366004610282565b610088565b005b610063610182565b60405190815260200160405180910390f35b610059610083366004610282565b6101a8565b6003546001600160a01b038281169116146101025760405162461bcd60e51b815260206004820152602f60248201527f4f6e6c79204173736f63696174656420736869707065722063616e2063616c6c60448201526e103a3434b990333ab731ba34b7b71760891b60648201526084015b60405180910390fd5b60048054600160a01b60ff60a01b19821617825560025460405163f5c0e38360e01b81526001600160a01b03928316938101939093528116602483015283169063f5c0e383906044015b600060405180830381600087803b15801561016657600080fd5b505af115801561017a573d6000803e3d6000fd5b505050505050565b600454600090600160a01b900460ff1660028111156101a3576101a36102b5565b905090565b6004546001600160a01b0382811691161461021e5760405162461bcd60e51b815260206004820152603060248201527f4f6e6c79204173736f6369617465642072656365697665722063616e2063616c60448201526f36103a3434b990333ab731ba34b7b71760811b60648201526084016100f9565b600480546002919060ff60a01b1916600160a01b8302179055506040516393a668b760e01b81526001600160a01b0382811660048301528316906393a668b79060240161014c565b80356001600160a01b038116811461027d57600080fd5b919050565b6000806040838503121561029557600080fd5b61029e83610266565b91506102ac60208401610266565b90509250929050565b634e487b7160e01b600052602160045260246000fdfea2646970667358221220a6bd2404c6428434ff24d81a252ea2cc18679d9872c8cf43577f453d2c05931364736f6c634300080d0033",
  "immutableReferences": {},
  "source": "// SPDX-License-Identifier: MIT\npragma solidity ^0.8.13;\n\nimport './Medicine.sol';\n\ncontract MedicineW_D {\n\n    address Owner;\n\n    enum packageStatus { atcreator, picked, delivered }\n\n    address medId;\n    address sender;\n    address transporter;\n    address receiver;\n    packageStatus status;\n\n    constructor(\n        address _address,\n        address Sender,\n        address Transporter,\n        address Receiver\n    ) {\n        Owner = Sender;\n        medId = _address;\n        sender = Sender;\n        transporter = Transporter;\n        receiver = Receiver;\n        status = packageStatus(0);\n    }\n\n\n    function pickWD(\n        address _address,\n        address _transporter\n    ) public {\n        require(\n            transporter == _transporter,\n            \"Only Associated shipper can call this function.\"\n        );\n        status = packageStatus(1);\n\n        Medicine(_address).sendWtoD(\n            receiver,\n            sender\n        );\n    }\n\n    function receiveWD(\n        address _address,\n        address Receiver\n    ) public {\n        require(\n            Receiver == receiver,\n            \"Only Associated receiver can call this function.\"\n        );\n        status = packageStatus(2);\n\n        Medicine(_address).receivedWtoD(\n            Receiver\n        );\n    }\n\n    function getBatchIDStatus() public view returns(\n        uint\n    ) {\n        return uint(status);\n    }\n\n}",
  "sourcePath": "D:\\downloads\\project code\\Pharma-Chain-master\\Pharma-Chain-master\\blockchain\\testing\\MedicineW_D.sol",
  "compiler": {
    "name": "solc",
    "version": "0.8.13+commit.abaa5c0e.Emscripten.clang"
  },
  "schemaVersion": "3.4.16",
  "updatedAt": "2024-04-02T08:01:41.274Z",
  "devdoc": {
    "kind": "dev",
    "methods": {},
    "version": 1
  },
  "userdoc": {
    "kind": "user",
    "methods": {},
    "version": 1
  }
}