{
  "contractName": "Medicine",
  "abi": [
    {
      "inputs": [
        {
          "internalType": "address",
          "name": "_manufacturerAddr",
          "type": "address"
        },
        {
          "internalType": "bytes32",
          "name": "_description",
          "type": "bytes32"
        },
        {
          "internalType": "address[]",
          "name": "_rawAddr",
          "type": "address[]"
        },
        {
          "internalType": "uint256",
          "name": "_quantity",
          "type": "uint256"
        },
        {
          "internalType": "address[]",
          "name": "_transporterAddr",
          "type": "address[]"
        }
      ],
      "stateMutability": "nonpayable",
      "type": "constructor"
    },
    {
      "anonymous": false,
      "inputs": [
        {
          "indexed": true,
          "internalType": "address",
          "name": "BatchID",
          "type": "address"
        },
        {
          "indexed": true,
          "internalType": "address",
          "name": "Shipper",
          "type": "address"
        },
        {
          "indexed": true,
          "internalType": "address",
          "name": "Receiver",
          "type": "address"
        },
        {
          "indexed": false,
          "internalType": "uint256",
          "name": "TransporterType",
          "type": "uint256"
        },
        {
          "indexed": false,
          "internalType": "uint256",
          "name": "Status",
          "type": "uint256"
        }
      ],
      "name": "ShippmentUpdate",
      "type": "event"
    },
    {
      "inputs": [],
      "name": "getMedicineInfo",
      "outputs": [
        {
          "internalType": "address",
          "name": "_manufacturerAddr",
          "type": "address"
        },
        {
          "internalType": "bytes32",
          "name": "_description",
          "type": "bytes32"
        },
        {
          "internalType": "address[]",
          "name": "_rawAddr",
          "type": "address[]"
        },
        {
          "internalType": "uint256",
          "name": "_quantity",
          "type": "uint256"
        },
        {
          "internalType": "address[]",
          "name": "_transporterAddr",
          "type": "address[]"
        },
        {
          "internalType": "address",
          "name": "_distributor",
          "type": "address"
        },
        {
          "internalType": "uint256",
          "name": "_status",
          "type": "uint256"
        },
        {
          "internalType": "address",
          "name": "_txnContract",
          "type": "address"
        },
        {
          "internalType": "address",
          "name": "_wholesaler",
          "type": "address"
        }
      ],
      "stateMutability": "view",
      "type": "function"
    },
    {
      "inputs": [],
      "name": "getWDC",
      "outputs": [
        {
          "internalType": "address[3]",
          "name": "WDP",
          "type": "address[3]"
        }
      ],
      "stateMutability": "view",
      "type": "function"
    },
    {
      "inputs": [],
      "name": "getBatchIDStatus",
      "outputs": [
        {
          "internalType": "uint256",
          "name": "",
          "type": "uint256"
        }
      ],
      "stateMutability": "view",
      "type": "function"
    },
    {
      "inputs": [
        {
          "internalType": "address",
          "name": "_transporterAddr",
          "type": "address"
        }
      ],
      "name": "pickMedicine",
      "outputs": [],
      "stateMutability": "nonpayable",
      "type": "function"
    },
    {
      "inputs": [
        {
          "internalType": "address",
          "name": "_transporterAddr",
          "type": "address"
        }
      ],
      "name": "updateTransporterArray",
      "outputs": [],
      "stateMutability": "nonpayable",
      "type": "function"
    },
    {
      "inputs": [
        {
          "internalType": "address",
          "name": "addr",
          "type": "address"
        }
      ],
      "name": "updateWholesalerAddress",
      "outputs": [],
      "stateMutability": "nonpayable",
      "type": "function"
    },
    {
      "inputs": [
        {
          "internalType": "address",
          "name": "addr",
          "type": "address"
        }
      ],
      "name": "updateDistributorAddress",
      "outputs": [],
      "stateMutability": "nonpayable",
      "type": "function"
    },
    {
      "inputs": [
        {
          "internalType": "address",
          "name": "_receiverAddr",
          "type": "address"
        }
      ],
      "name": "receivedMedicine",
      "outputs": [
        {
          "internalType": "uint256",
          "name": "",
          "type": "uint256"
        }
      ],
      "stateMutability": "nonpayable",
      "type": "function"
    },
    {
      "inputs": [
        {
          "internalType": "address",
          "name": "receiver",
          "type": "address"
        },
        {
          "internalType": "address",
          "name": "sender",
          "type": "address"
        }
      ],
      "name": "sendWtoD",
      "outputs": [],
      "stateMutability": "nonpayable",
      "type": "function"
    },
    {
      "inputs": [
        {
          "internalType": "address",
          "name": "receiver",
          "type": "address"
        }
      ],
      "name": "receivedWtoD",
      "outputs": [],
      "stateMutability": "nonpayable",
      "type": "function"
    },
    {
      "inputs": [
        {
          "internalType": "address",
          "name": "receiver",
          "type": "address"
        },
        {
          "internalType": "address",
          "name": "sender",
          "type": "address"
        }
      ],
      "name": "sendDtoC",
      "outputs": [],
      "stateMutability": "nonpayable",
      "type": "function"
    },
    {
      "inputs": [
        {
          "internalType": "address",
          "name": "receiver",
          "type": "address"
        }
      ],
      "name": "receivedDtoC",
      "outputs": [],
      "stateMutability": "nonpayable",
      "type": "function"
    }
  ],
  "bytecode": "0x60806040523480156200001157600080fd5b5060405162001bb938038062001bb983398101604081905262000034916200029e565b600080546001600160a01b0387166001600160a01b0319918216811790925560048054909116909117905560018490558251620000799060029060208601906200012f565b5060088290558051620000949060039060208401906200012f565b50600580546001600160a01b03199081169091556006805490911690556009805460ff191690556040516000908690620000ce9062000199565b6001600160a01b039091168152602001604051809103906000f080158015620000fb573d6000803e3d6000fd5b50600980546001600160a01b0390921661010002610100600160a81b0319909216919091179055506200032f945050505050565b82805482825590600052602060002090810192821562000187579160200282015b828111156200018757825182546001600160a01b0319166001600160a01b0390911617825560209092019160019091019062000150565b5062000195929150620001a7565b5090565b610c568062000f6383390190565b5b80821115620001955760008155600101620001a8565b80516001600160a01b0381168114620001d657600080fd5b919050565b634e487b7160e01b600052604160045260246000fd5b600082601f8301126200020357600080fd5b815160206001600160401b0380831115620002225762000222620001db565b8260051b604051601f19603f830116810181811084821117156200024a576200024a620001db565b6040529384528581018301938381019250878511156200026957600080fd5b83870191505b8482101562000293576200028382620001be565b835291830191908301906200026f565b979650505050505050565b600080600080600060a08688031215620002b757600080fd5b620002c286620001be565b6020870151604088015191965094506001600160401b0380821115620002e757600080fd5b620002f589838a01620001f1565b94506060880151935060808801519150808211156200031357600080fd5b506200032288828901620001f1565b9150509295509295909350565b610c24806200033f6000396000f3fe608060405234801561001057600080fd5b50600436106100b45760003560e01c8063ac42a41511610071578063ac42a415146101ac578063c8f5f189146101bf578063d2f3fcc7146101d2578063e002c8a5146101da578063e138d4ce146101f7578063f5c0e3831461022757600080fd5b80631fedd36c146100b95780632f1d7588146100df57806393a668b7146100f457806396991e7914610107578063aab3a9d614610137578063abb428a614610197575b600080fd5b6100cc6100c73660046109f3565b61023a565b6040519081526020015b60405180910390f35b6100f26100ed366004610a15565b6104c5565b005b6100f26101023660046109f3565b610535565b6100f26101153660046109f3565b600680546001600160a01b0319166001600160a01b0392909216919091179055565b6100f26101453660046109f3565b600380546001810182556000919091527fc2575a0e9e593c00f959f8c92f12db2869c3395a3b0502d05e2516446f71f85b0180546001600160a01b0319166001600160a01b0392909216919091179055565b61019f610589565b6040516100d69190610a48565b6100f26101ba3660046109f3565b6105c4565b6100f26101cd3660046109f3565b610770565b6100cc6107d4565b6101e26107f3565b6040516100d699989796959493929190610ac6565b6100f26102053660046109f3565b600580546001600160a01b0319166001600160a01b0392909216919091179055565b6100f2610235366004610a15565b61092f565b6005546000906001600160a01b038381169116148061026657506006546001600160a01b038381169116145b6102d55760405162461bcd60e51b815260206004820152603560248201527f4f6e6c792057686f6c6573616c6572206f72204469737472696275746f72206360448201527430b71031b0b636103a3434b990333ab731ba34b7b760591b60648201526084015b60405180910390fd5b60095460019060ff1660068111156102ef576102ef610b3a565b10156103395760405162461bcd60e51b8152602060048201526019602482015278141c9bd91d58dd081b9bdd081c1a58dad959081d5c081e595d603a1b60448201526064016102cc565b6005546001600160a01b03838116911614801561036c5750600160095460ff16600681111561036a5761036a610b3a565b145b156103fc576009805460ff1916600390811790915560055481546001600160a01b03909116919061039f90600190610b50565b815481106103af576103af610b75565b6000918252602091829020015460408051600281526003938101939093526001600160a01b03909116913091600080516020610bcf833981519152910160405180910390a4506001919050565b6006546001600160a01b03838116911614801561042f5750600260095460ff16600681111561042d5761042d610b3a565b145b156104bd576009805460ff19166004179055600654600380546001600160a01b039092169161046090600190610b50565b8154811061047057610470610b75565b6000918252602091829020015460408051600381526004938101939093526001600160a01b03909116913091600080516020610bcf833981519152910160405180910390a4506002919050565b506000919050565b6006546001600160a01b038281169116146104f25760405162461bcd60e51b81526004016102cc90610b8b565b600780546001600160a01b0319166001600160a01b03841617905560055b6009805460ff1916600183600681111561052c5761052c610b3a565b02179055505050565b6006546001600160a01b038281169116146105625760405162461bcd60e51b81526004016102cc90610b8b565b60045b6009805460ff1916600183600681111561058157610581610b3a565b021790555050565b6105916109b9565b50604080516060810182526005546001600160a01b03908116825260065481166020830152600754169181019190915290565b600380546105d490600190610b50565b815481106105e4576105e4610b75565b6000918252602090912001546001600160a01b0382811691161461065a5760405162461bcd60e51b815260206004820152602760248201527f4f6e6c79205472616e73706f727465722063616e2063616c6c207468697320666044820152663ab731ba34b7b760c91b60648201526084016102cc565b600060095460ff16600681111561067357610673610b3a565b146106c05760405162461bcd60e51b815260206004820181905260248201527f5061636b616765206d757374206265206174204d616e7566616374757265722e60448201526064016102cc565b6005546001600160a01b03161561072357600980546001919060ff19168280021790555060055460408051600180825260208201526001600160a01b03928316928416913091600080516020610bcf83398151915291015b60405180910390a450565b600980546002919060ff191660018302179055506006546040805160018152600260208201526001600160a01b03928316928416913091600080516020610bcf8339815191529101610718565b6007546001600160a01b038281169116146107cd5760405162461bcd60e51b815260206004820181905260248201527f5468697320437573746f6d6572206973206e6f74204173736f6369617465642e60448201526064016102cc565b6006610565565b60095460009060ff1660068111156107ee576107ee610b3a565b905090565b6004546001546008546006805460095460009586956060958795879587958695869586956001600160a01b03928316959194600294919360039391169160ff169081111561084357610843610b3a565b6009546005548654604080516020808402820181019092528281526101009094046001600160a01b03908116949316929189918301828280156108af57602002820191906000526020600020905b81546001600160a01b03168152600190910190602001808311610891575b505050505096508480548060200260200160405190810160405280929190818152602001828054801561090b57602002820191906000526020600020905b81546001600160a01b031681526001909101906020018083116108ed575b50505050509450985098509850985098509850985098509850909192939495969798565b6005546001600160a01b038281169116146109975760405162461bcd60e51b815260206004820152602260248201527f746869732057686f6c6573616c6572206973206e6f74204173736f6369617465604482015261321760f11b60648201526084016102cc565b600680546001600160a01b0319166001600160a01b0384161790556002610510565b60405180606001604052806003906020820280368337509192915050565b80356001600160a01b03811681146109ee57600080fd5b919050565b600060208284031215610a0557600080fd5b610a0e826109d7565b9392505050565b60008060408385031215610a2857600080fd5b610a31836109d7565b9150610a3f602084016109d7565b90509250929050565b60608101818360005b6003811015610a795781516001600160a01b0316835260209283019290910190600101610a51565b50505092915050565b600081518084526020808501945080840160005b83811015610abb5781516001600160a01b031687529582019590820190600101610a96565b509495945050505050565b6001600160a01b038a81168252602082018a905261012060408301819052600091610af38483018c610a82565b91508960608501528382036080850152610b0d828a610a82565b97811660a085015260c0840196909652505091831660e08301529091166101009091015295945050505050565b634e487b7160e01b600052602160045260246000fd5b600082821015610b7057634e487b7160e01b600052601160045260246000fd5b500390565b634e487b7160e01b600052603260045260246000fd5b60208082526023908201527f54686973204469737472696275746f72206973206e6f74204173736f6369617460408201526232b21760e91b60608201526080019056fe7e89c4b1a4e2b51aae84eb1f90e8a34cb792ece5ac5cb63db4830c891220b28da2646970667358221220eddab4ae09d2ded320edde656b2354f513a82f41a6005755d2b5e1f0b94a748d64736f6c634300080d00336080604052600060025534801561001557600080fd5b50604051610c56380380610c5683398101604081905261003491610059565b600080546001600160a01b0319166001600160a01b0392909216919091179055610089565b60006020828403121561006b57600080fd5b81516001600160a01b038116811461008257600080fd5b9392505050565b610bbe806100986000396000f3fe608060405234801561001057600080fd5b506004361061004c5760003560e01c806327506f53146100515780633626a3681461006f57806378ce1365146100845780639ace38c21461009b575b600080fd5b6100596100c1565b60405161006691906107e0565b60405180910390f35b61008261007d36600461096a565b610310565b005b61008d60025481565b604051908152602001610066565b6100ae6100a9366004610a01565b6105a0565b6040516100669796959493929190610a1a565b60025460609060008167ffffffffffffffff8111156100e2576100e26108c7565b60405190808252806020026020018201604052801561014857816020015b6040805160e0810182526000808252602080830182905292820181905260608083018290526080830181905260a083015260c082015282526000199092019101816101005790505b50905060005b8281101561030957600081815260016020818152604092839020835160e08101855281548152928101546001600160a01b0390811692840192909252600281015490911692820192909252600382015460608201526004820180549192916080840191906101bb90610a7a565b80601f01602080910402602001604051908101604052809291908181526020018280546101e790610a7a565b80156102345780601f1061020957610100808354040283529160200191610234565b820191906000526020600020905b81548152906001019060200180831161021757829003601f168201915b5050505050815260200160058201805461024d90610a7a565b80601f016020809104026020016040519081016040528092919081815260200182805461027990610a7a565b80156102c65780601f1061029b576101008083540402835291602001916102c6565b820191906000526020600020905b8154815290600101906020018083116102a957829003601f168201915b505050505081526020016006820154815250508282815181106102eb576102eb610ab4565b6020026020010181905250808061030190610ae0565b91505061014e565b5092915050565b60025442906000036103f2576040805160e0810182528881526001600160a01b038089166020808401918252898316848601908152606085018a8152608086018a815260a087018a905260c08701899052600280546000908152600180875299902088518155955198860180549988166001600160a01b03199a8b161790559251928501805493909616929097169190911790935591516003820155925180519293926103c392600485019201906106fa565b5060a082015180516103df9160058401916020909101906106fa565b5060c0820151816006015590505061053b565b836001600060016002546104069190610af9565b815260200190815260200160002060000154146104695760405162461bcd60e51b815260206004820152601b60248201527f5472616e73616374696f6e206572726f72206f63637572726564210000000000604482015260640160405180910390fd5b6040805160e0810182528881526001600160a01b038089166020808401918252898316848601908152606085018a8152608086018a815260a087018a905260c08701899052600280546000908152600180875299902088518155955198860180549988166001600160a01b03199a8b1617905592519285018054939096169290971691909117909355915160038201559251805192939261051092600485019201906106fa565b5060a0820151805161052c9160058401916020909101906106fa565b5060c082015181600601559050505b60016002600082825461054e9190610b10565b90915550506040517f30d01d358fb0899fe4d50947b2e9301c952d9eed09b14c7ecdcbeed4434557c49061058f90899089908990899087908a908a90610b28565b60405180910390a150505050505050565b6001602081905260009182526040909120805491810154600282015460038301546004840180546001600160a01b0394851695949093169391926105e390610a7a565b80601f016020809104026020016040519081016040528092919081815260200182805461060f90610a7a565b801561065c5780601f106106315761010080835404028352916020019161065c565b820191906000526020600020905b81548152906001019060200180831161063f57829003601f168201915b50505050509080600501805461067190610a7a565b80601f016020809104026020016040519081016040528092919081815260200182805461069d90610a7a565b80156106ea5780601f106106bf576101008083540402835291602001916106ea565b820191906000526020600020905b8154815290600101906020018083116106cd57829003601f168201915b5050505050908060060154905087565b82805461070690610a7a565b90600052602060002090601f016020900481019282610728576000855561076e565b82601f1061074157805160ff191683800117855561076e565b8280016001018555821561076e579182015b8281111561076e578251825591602001919060010190610753565b5061077a92915061077e565b5090565b5b8082111561077a576000815560010161077f565b6000815180845260005b818110156107b95760208185018101518683018201520161079d565b818111156107cb576000602083870101525b50601f01601f19169290920160200192915050565b60006020808301818452808551808352604092508286019150828160051b87010184880160005b8381101561089d57888303603f19018552815180518452878101516001600160a01b03908116898601528782015116878501526060808201519085015260808082015160e0828701819052919061086083880182610793565b9250505060a0808301518683038288015261087b8382610793565b60c0948501519790940196909652505094870194925090860190600101610807565b509098975050505050505050565b80356001600160a01b03811681146108c257600080fd5b919050565b634e487b7160e01b600052604160045260246000fd5b600082601f8301126108ee57600080fd5b813567ffffffffffffffff80821115610909576109096108c7565b604051601f8301601f19908116603f01168101908282118183101715610931576109316108c7565b8160405283815286602085880101111561094a57600080fd5b836020870160208301376000602085830101528094505050505092915050565b60008060008060008060c0878903121561098357600080fd5b86359550610993602088016108ab565b94506109a1604088016108ab565b935060608701359250608087013567ffffffffffffffff808211156109c557600080fd5b6109d18a838b016108dd565b935060a08901359150808211156109e757600080fd5b506109f489828a016108dd565b9150509295509295509295565b600060208284031215610a1357600080fd5b5035919050565b8781526001600160a01b038781166020830152861660408201526060810185905260e060808201819052600090610a5390830186610793565b82810360a0840152610a658186610793565b9150508260c083015298975050505050505050565b600181811c90821680610a8e57607f821691505b602082108103610aae57634e487b7160e01b600052602260045260246000fd5b50919050565b634e487b7160e01b600052603260045260246000fd5b634e487b7160e01b600052601160045260246000fd5b600060018201610af257610af2610aca565b5060010190565b600082821015610b0b57610b0b610aca565b500390565b60008219821115610b2357610b23610aca565b500190565b8781526001600160a01b03878116602083015286166040820152606081018590526080810184905260e060a08201819052600090610b6890830185610793565b82810360c0840152610b7a8185610793565b9a995050505050505050505056fea2646970667358221220fcf436a1698cfe8cc4f564df70520d77bd06b1cbdf8312e63f9312a68399669464736f6c634300080d0033",
  "immutableReferences": {},
  "source": "// SPDX-License-Identifier: MIT\npragma solidity ^0.8.13;\n\nimport './Transactions.sol';\n\ncontract Medicine {\n\n    address Owner;\n\n    enum medicineStatus {\n        atManufacturer,\n        pickedForW,\n        pickedForD,\n        deliveredAtW,\n        deliveredAtD,\n        pickedForC,\n        deliveredAtC\n    }\n\n    bytes32 description;\n    address[] rawMaterials;\n    address[] transporters;\n    address manufacturer;\n    address wholesaler;\n    address distributor;\n    address customer;\n    uint quantity;\n    medicineStatus status;\n    address txnContractAddress;\n\n    event ShippmentUpdate(\n        address indexed BatchID,\n        address indexed Shipper,\n        address indexed Receiver,\n        uint TransporterType,\n        uint Status\n    );\n\n\n    constructor(\n        address _manufacturerAddr,\n        bytes32 _description,\n        address[] memory _rawAddr,\n        uint _quantity,\n        address[] memory _transporterAddr\n    )  {\n        Owner = _manufacturerAddr;\n        manufacturer = _manufacturerAddr;\n        description = _description;\n        rawMaterials = _rawAddr;\n        quantity = _quantity;\n        transporters = _transporterAddr;\n        wholesaler = address(0x0);\n        distributor = address(0x0);\n        status = medicineStatus(0);\n        Transactions txnContract = new Transactions(_manufacturerAddr);\n        txnContractAddress = address(txnContract);\n    }\n\n\n    function getMedicineInfo () public view returns(\n        address _manufacturerAddr,\n        bytes32 _description,\n        address[] memory _rawAddr,\n        uint _quantity,\n        address[] memory _transporterAddr,\n        address _distributor,\n        uint _status,\n        address _txnContract,\n        address _wholesaler\n    ) {\n        return(\n            manufacturer,\n            description,\n            rawMaterials,\n            quantity,\n            transporters,\n            distributor,\n            uint(status),\n            txnContractAddress,\n            wholesaler\n        );\n    }\n\n \n    function getWDC() public view returns(\n        address[3] memory WDP\n    ) {\n        return (\n            [wholesaler, distributor, customer]\n        );\n    }\n\n    function getBatchIDStatus() public view returns(\n        uint\n    ) {\n        return uint(status);\n    }\n\n\n    function pickMedicine(\n        address _transporterAddr\n    ) public {\n        require(\n            _transporterAddr == transporters[transporters.length - 1],\n            \"Only Transporter can call this function\"\n        );\n        require(\n            status == medicineStatus(0),\n            \"Package must be at Manufacturer.\"\n        );\n\n        if(wholesaler != address(0x0)){\n            status = medicineStatus(1);\n            emit ShippmentUpdate(address(this), _transporterAddr, wholesaler, 1, 1);\n        }else{\n            status = medicineStatus(2);\n            emit ShippmentUpdate(address(this), _transporterAddr, distributor, 1, 2);\n        }\n    }\n    \n    function updateTransporterArray(address _transporterAddr) public {\n        transporters.push(_transporterAddr);\n    }\n\n    function updateWholesalerAddress(address addr) public {\n        wholesaler = addr;\n    }\n\n    function updateDistributorAddress(address addr) public {\n        distributor = addr;\n    }\n\n    function receivedMedicine(address _receiverAddr) public returns (uint) {\n    require(\n        _receiverAddr == wholesaler || _receiverAddr == distributor,\n        \"Only Wholesaler or Distributor can call this function\"\n    );\n\n    require(\n        uint(status) >= 1,\n        \"Product not picked up yet\"\n    );\n\n    if (_receiverAddr == wholesaler && status == medicineStatus(1)) {\n        status = medicineStatus(3);\n        emit ShippmentUpdate(address(this), transporters[transporters.length - 1], wholesaler, 2, 3);\n        return 1;\n    } else if (_receiverAddr == distributor && status == medicineStatus(2)) {\n        status = medicineStatus(4);\n        emit ShippmentUpdate(address(this), transporters[transporters.length - 1], distributor, 3, 4);\n        return 2;\n    }\n\n    // Add a default return statement\n    return 0;\n}\n\n\n\n    function sendWtoD(\n        address receiver,\n        address sender\n    ) public {\n        require(\n            wholesaler == sender,\n            \"this Wholesaler is not Associated.\"\n        );\n        distributor = receiver;\n        status = medicineStatus(2);\n    }\n\n\n    function receivedWtoD(\n        address receiver\n    ) public {\n        require(\n            distributor == receiver,\n            \"This Distributor is not Associated.\"\n        );\n        status = medicineStatus(4);\n    }\n\n\n    function sendDtoC(\n        address receiver,\n        address sender\n    ) public {\n        require(\n            distributor == sender,\n            \"This Distributor is not Associated.\"\n        );\n        customer = receiver;\n        status = medicineStatus(5);\n    }\n\n\n    function receivedDtoC(\n        address receiver\n    ) public {\n        require(\n            customer == receiver,\n            \"This Customer is not Associated.\"\n        );\n        status = medicineStatus(6);\n    }\n}",
  "sourcePath": "D:\\downloads\\project code\\Pharma-Chain-master\\Pharma-Chain-master\\blockchain\\testing\\Medicine.sol",
  "compiler": {
    "name": "solc",
    "version": "0.8.13+commit.abaa5c0e.Emscripten.clang"
  },
  "schemaVersion": "3.4.16",
  "updatedAt": "2024-04-02T08:01:41.201Z",
  "devdoc": {
    "kind": "dev",
    "methods": {},
    "version": 1
  },
  "userdoc": {
    "kind": "user",
    "methods": {},
    "version": 1
  }
}