{
  "contractName": "SupplyChain",
  "abi": [
    {
      "inputs": [],
      "stateMutability": "nonpayable",
      "type": "constructor"
    },
    {
      "anonymous": false,
      "inputs": [
        {
          "indexed": true,
          "internalType": "address",
          "name": "_address",
          "type": "address"
        },
        {
          "indexed": false,
          "internalType": "bytes32",
          "name": "name",
          "type": "bytes32"
        }
      ],
      "name": "UserRegister",
      "type": "event"
    },
    {
      "anonymous": false,
      "inputs": [
        {
          "indexed": false,
          "internalType": "address",
          "name": "buyer",
          "type": "address"
        },
        {
          "indexed": true,
          "internalType": "address",
          "name": "seller",
          "type": "address"
        },
        {
          "indexed": false,
          "internalType": "address",
          "name": "packageAddr",
          "type": "address"
        },
        {
          "indexed": false,
          "internalType": "bytes",
          "name": "signature",
          "type": "bytes"
        },
        {
          "indexed": true,
          "internalType": "uint256",
          "name": "timestamp",
          "type": "uint256"
        }
      ],
      "name": "buyEvent",
      "type": "event"
    },
    {
      "anonymous": false,
      "inputs": [
        {
          "indexed": true,
          "internalType": "address",
          "name": "buyer",
          "type": "address"
        },
        {
          "indexed": false,
          "internalType": "address",
          "name": "seller",
          "type": "address"
        },
        {
          "indexed": false,
          "internalType": "address",
          "name": "packageAddr",
          "type": "address"
        },
        {
          "indexed": false,
          "internalType": "bytes",
          "name": "signature",
          "type": "bytes"
        },
        {
          "indexed": true,
          "internalType": "uint256",
          "name": "timestamp",
          "type": "uint256"
        }
      ],
      "name": "receivedEvent",
      "type": "event"
    },
    {
      "anonymous": false,
      "inputs": [
        {
          "indexed": true,
          "internalType": "address",
          "name": "buyer",
          "type": "address"
        },
        {
          "indexed": false,
          "internalType": "address",
          "name": "seller",
          "type": "address"
        },
        {
          "indexed": false,
          "internalType": "address",
          "name": "packageAddr",
          "type": "address"
        },
        {
          "indexed": false,
          "internalType": "bytes",
          "name": "signature",
          "type": "bytes"
        },
        {
          "indexed": true,
          "internalType": "uint256",
          "name": "timestamp",
          "type": "uint256"
        }
      ],
      "name": "respondEvent",
      "type": "event"
    },
    {
      "anonymous": false,
      "inputs": [
        {
          "indexed": false,
          "internalType": "address",
          "name": "seller",
          "type": "address"
        },
        {
          "indexed": false,
          "internalType": "address",
          "name": "buyer",
          "type": "address"
        },
        {
          "indexed": true,
          "internalType": "address",
          "name": "packageAddr",
          "type": "address"
        },
        {
          "indexed": false,
          "internalType": "bytes",
          "name": "signature",
          "type": "bytes"
        },
        {
          "indexed": true,
          "internalType": "uint256",
          "name": "timestamp",
          "type": "uint256"
        }
      ],
      "name": "sendEvent",
      "type": "event"
    },
    {
      "inputs": [
        {
          "internalType": "address",
          "name": "",
          "type": "address"
        },
        {
          "internalType": "uint256",
          "name": "",
          "type": "uint256"
        }
      ],
      "name": "MedicineDtoC",
      "outputs": [
        {
          "internalType": "address",
          "name": "",
          "type": "address"
        }
      ],
      "stateMutability": "view",
      "type": "function",
      "constant": true
    },
    {
      "inputs": [
        {
          "internalType": "address",
          "name": "",
          "type": "address"
        }
      ],
      "name": "MedicineDtoCTxContract",
      "outputs": [
        {
          "internalType": "address",
          "name": "",
          "type": "address"
        }
      ],
      "stateMutability": "view",
      "type": "function",
      "constant": true
    },
    {
      "inputs": [
        {
          "internalType": "address",
          "name": "",
          "type": "address"
        },
        {
          "internalType": "uint256",
          "name": "",
          "type": "uint256"
        }
      ],
      "name": "MedicineWtoD",
      "outputs": [
        {
          "internalType": "address",
          "name": "",
          "type": "address"
        }
      ],
      "stateMutability": "view",
      "type": "function",
      "constant": true
    },
    {
      "inputs": [
        {
          "internalType": "address",
          "name": "",
          "type": "address"
        }
      ],
      "name": "MedicineWtoDTxContract",
      "outputs": [
        {
          "internalType": "address",
          "name": "",
          "type": "address"
        }
      ],
      "stateMutability": "view",
      "type": "function",
      "constant": true
    },
    {
      "inputs": [
        {
          "internalType": "address",
          "name": "",
          "type": "address"
        },
        {
          "internalType": "uint256",
          "name": "",
          "type": "uint256"
        }
      ],
      "name": "MedicinesAtDistributor",
      "outputs": [
        {
          "internalType": "address",
          "name": "",
          "type": "address"
        }
      ],
      "stateMutability": "view",
      "type": "function",
      "constant": true
    },
    {
      "inputs": [
        {
          "internalType": "address",
          "name": "",
          "type": "address"
        },
        {
          "internalType": "uint256",
          "name": "",
          "type": "uint256"
        }
      ],
      "name": "MedicinesAtWholesaler",
      "outputs": [
        {
          "internalType": "address",
          "name": "",
          "type": "address"
        }
      ],
      "stateMutability": "view",
      "type": "function",
      "constant": true
    },
    {
      "inputs": [
        {
          "internalType": "address",
          "name": "",
          "type": "address"
        },
        {
          "internalType": "uint256",
          "name": "",
          "type": "uint256"
        }
      ],
      "name": "manufacturerMedicines",
      "outputs": [
        {
          "internalType": "address",
          "name": "",
          "type": "address"
        }
      ],
      "stateMutability": "view",
      "type": "function",
      "constant": true
    },
    {
      "inputs": [
        {
          "internalType": "address",
          "name": "",
          "type": "address"
        },
        {
          "internalType": "uint256",
          "name": "",
          "type": "uint256"
        }
      ],
      "name": "manufacturerRawMaterials",
      "outputs": [
        {
          "internalType": "address",
          "name": "",
          "type": "address"
        }
      ],
      "stateMutability": "view",
      "type": "function",
      "constant": true
    },
    {
      "inputs": [
        {
          "internalType": "address",
          "name": "",
          "type": "address"
        },
        {
          "internalType": "uint256",
          "name": "",
          "type": "uint256"
        }
      ],
      "name": "supplierRawMaterials",
      "outputs": [
        {
          "internalType": "address",
          "name": "",
          "type": "address"
        }
      ],
      "stateMutability": "view",
      "type": "function",
      "constant": true
    },
    {
      "inputs": [
        {
          "internalType": "address",
          "name": "",
          "type": "address"
        }
      ],
      "name": "userInfo",
      "outputs": [
        {
          "internalType": "bytes32",
          "name": "name",
          "type": "bytes32"
        },
        {
          "internalType": "enum SupplyChain.roles",
          "name": "role",
          "type": "uint8"
        },
        {
          "internalType": "address",
          "name": "userAddr",
          "type": "address"
        }
      ],
      "stateMutability": "view",
      "type": "function",
      "constant": true
    },
    {
      "inputs": [
        {
          "internalType": "address",
          "name": "buyer",
          "type": "address"
        },
        {
          "internalType": "address",
          "name": "seller",
          "type": "address"
        },
        {
          "internalType": "address",
          "name": "packageAddr",
          "type": "address"
        },
        {
          "internalType": "bytes",
          "name": "signature",
          "type": "bytes"
        }
      ],
      "name": "requestProduct",
      "outputs": [],
      "stateMutability": "nonpayable",
      "type": "function"
    },
    {
      "inputs": [
        {
          "internalType": "address",
          "name": "buyer",
          "type": "address"
        },
        {
          "internalType": "address",
          "name": "seller",
          "type": "address"
        },
        {
          "internalType": "address",
          "name": "packageAddr",
          "type": "address"
        },
        {
          "internalType": "bytes",
          "name": "signature",
          "type": "bytes"
        }
      ],
      "name": "respondToEntity",
      "outputs": [],
      "stateMutability": "nonpayable",
      "type": "function"
    },
    {
      "inputs": [
        {
          "internalType": "address",
          "name": "buyer",
          "type": "address"
        },
        {
          "internalType": "address",
          "name": "seller",
          "type": "address"
        },
        {
          "internalType": "address",
          "name": "packageAddr",
          "type": "address"
        },
        {
          "internalType": "bytes",
          "name": "signature",
          "type": "bytes"
        }
      ],
      "name": "sendPackageToEntity",
      "outputs": [],
      "stateMutability": "nonpayable",
      "type": "function"
    },
    {
      "inputs": [
        {
          "internalType": "bytes32",
          "name": "name",
          "type": "bytes32"
        },
        {
          "internalType": "string[]",
          "name": "loc",
          "type": "string[]"
        },
        {
          "internalType": "uint256",
          "name": "role",
          "type": "uint256"
        },
        {
          "internalType": "address",
          "name": "_userAddr",
          "type": "address"
        }
      ],
      "name": "registerUser",
      "outputs": [],
      "stateMutability": "nonpayable",
      "type": "function"
    },
    {
      "inputs": [
        {
          "internalType": "uint256",
          "name": "_role",
          "type": "uint256"
        },
        {
          "internalType": "address",
          "name": "_addr",
          "type": "address"
        }
      ],
      "name": "changeUserRole",
      "outputs": [
        {
          "internalType": "string",
          "name": "",
          "type": "string"
        }
      ],
      "stateMutability": "nonpayable",
      "type": "function"
    },
    {
      "inputs": [
        {
          "internalType": "address",
          "name": "_address",
          "type": "address"
        }
      ],
      "name": "getUserInfo",
      "outputs": [
        {
          "components": [
            {
              "internalType": "bytes32",
              "name": "name",
              "type": "bytes32"
            },
            {
              "internalType": "string[]",
              "name": "userLoc",
              "type": "string[]"
            },
            {
              "internalType": "enum SupplyChain.roles",
              "name": "role",
              "type": "uint8"
            },
            {
              "internalType": "address",
              "name": "userAddr",
              "type": "address"
            }
          ],
          "internalType": "struct SupplyChain.userData",
          "name": "",
          "type": "tuple"
        }
      ],
      "stateMutability": "view",
      "type": "function",
      "constant": true
    },
    {
      "inputs": [
        {
          "internalType": "bytes32",
          "name": "_description",
          "type": "bytes32"
        },
        {
          "internalType": "uint256",
          "name": "_quantity",
          "type": "uint256"
        },
        {
          "internalType": "address",
          "name": "_transporterAddr",
          "type": "address"
        },
        {
          "internalType": "address",
          "name": "_manufacturerAddr",
          "type": "address"
        }
      ],
      "name": "createRawMaterialPackage",
      "outputs": [
        {
          "internalType": "address",
          "name": "",
          "type": "address"
        }
      ],
      "stateMutability": "nonpayable",
      "type": "function"
    },
    {
      "inputs": [],
      "name": "getNoOfPackagesOfSupplier",
      "outputs": [
        {
          "internalType": "uint256",
          "name": "",
          "type": "uint256"
        }
      ],
      "stateMutability": "view",
      "type": "function",
      "constant": true
    },
    {
      "inputs": [],
      "name": "getAllPackages",
      "outputs": [
        {
          "internalType": "address[]",
          "name": "",
          "type": "address[]"
        }
      ],
      "stateMutability": "view",
      "type": "function",
      "constant": true
    },
    {
      "inputs": [
        {
          "internalType": "address",
          "name": "_addr",
          "type": "address"
        },
        {
          "internalType": "uint256",
          "name": "transportertype",
          "type": "uint256"
        },
        {
          "internalType": "address",
          "name": "cid",
          "type": "address"
        }
      ],
      "name": "transporterHandlePackage",
      "outputs": [],
      "stateMutability": "nonpayable",
      "type": "function"
    },
    {
      "inputs": [
        {
          "internalType": "address",
          "name": "_addr",
          "type": "address"
        },
        {
          "internalType": "address",
          "name": "_manufacturerAddress",
          "type": "address"
        },
        {
          "internalType": "address",
          "name": "_sellerAddr",
          "type": "address"
        },
        {
          "internalType": "bytes",
          "name": "signature",
          "type": "bytes"
        }
      ],
      "name": "manufacturerReceivedPackage",
      "outputs": [],
      "stateMutability": "nonpayable",
      "type": "function"
    },
    {
      "inputs": [],
      "name": "getAllRawMaterials",
      "outputs": [
        {
          "internalType": "address[]",
          "name": "",
          "type": "address[]"
        }
      ],
      "stateMutability": "view",
      "type": "function",
      "constant": true
    },
    {
      "inputs": [
        {
          "internalType": "address",
          "name": "_manufacturerAddr",
          "type": "address"
        },
        {
          "internalType": "bytes32",
          "name": "_description",
          "type": "bytes32"
        },
        {
          "internalType": "address[]",
          "name": "_rawAddr",
          "type": "address[]"
        },
        {
          "internalType": "uint256",
          "name": "_quantity",
          "type": "uint256"
        },
        {
          "internalType": "address[]",
          "name": "_transporterAddr",
          "type": "address[]"
        }
      ],
      "name": "manufacturerCreatesMedicine",
      "outputs": [],
      "stateMutability": "nonpayable",
      "type": "function"
    },
    {
      "inputs": [],
      "name": "getAllCreatedMedicines",
      "outputs": [
        {
          "internalType": "address[]",
          "name": "",
          "type": "address[]"
        }
      ],
      "stateMutability": "view",
      "type": "function",
      "constant": true
    },
    {
      "inputs": [
        {
          "internalType": "address",
          "name": "_address",
          "type": "address"
        },
        {
          "internalType": "address",
          "name": "_sellerAddr",
          "type": "address"
        },
        {
          "internalType": "bytes",
          "name": "signature",
          "type": "bytes"
        }
      ],
      "name": "wholesalerReceivedMedicine",
      "outputs": [],
      "stateMutability": "nonpayable",
      "type": "function"
    },
    {
      "inputs": [
        {
          "internalType": "address",
          "name": "_address",
          "type": "address"
        },
        {
          "internalType": "address",
          "name": "transporter",
          "type": "address"
        },
        {
          "internalType": "address",
          "name": "receiver",
          "type": "address"
        }
      ],
      "name": "transferMedicineWtoD",
      "outputs": [],
      "stateMutability": "nonpayable",
      "type": "function"
    },
    {
      "inputs": [
        {
          "internalType": "uint256",
          "name": "index",
          "type": "uint256"
        }
      ],
      "name": "getBatchIdByIndexWD",
      "outputs": [
        {
          "internalType": "address",
          "name": "packageID",
          "type": "address"
        }
      ],
      "stateMutability": "view",
      "type": "function",
      "constant": true
    },
    {
      "inputs": [
        {
          "internalType": "address",
          "name": "_address",
          "type": "address"
        }
      ],
      "name": "getSubContractWD",
      "outputs": [
        {
          "internalType": "address",
          "name": "SubContractWD",
          "type": "address"
        }
      ],
      "stateMutability": "view",
      "type": "function",
      "constant": true
    },
    {
      "inputs": [],
      "name": "getAllMedicinesAtWholesaler",
      "outputs": [
        {
          "internalType": "address[]",
          "name": "",
          "type": "address[]"
        }
      ],
      "stateMutability": "view",
      "type": "function",
      "constant": true
    },
    {
      "inputs": [
        {
          "internalType": "address",
          "name": "_address",
          "type": "address"
        },
        {
          "internalType": "address",
          "name": "cid",
          "type": "address"
        },
        {
          "internalType": "address",
          "name": "_sellerAddr",
          "type": "address"
        },
        {
          "internalType": "bytes",
          "name": "signature",
          "type": "bytes"
        }
      ],
      "name": "distributorReceivedMedicine",
      "outputs": [],
      "stateMutability": "nonpayable",
      "type": "function"
    },
    {
      "inputs": [
        {
          "internalType": "address",
          "name": "_address",
          "type": "address"
        },
        {
          "internalType": "address",
          "name": "transporter",
          "type": "address"
        },
        {
          "internalType": "address",
          "name": "receiver",
          "type": "address"
        }
      ],
      "name": "distributorTransferMedicinetoCustomer",
      "outputs": [],
      "stateMutability": "nonpayable",
      "type": "function"
    },
    {
      "inputs": [],
      "name": "getBatchesCountDC",
      "outputs": [
        {
          "internalType": "uint256",
          "name": "count",
          "type": "uint256"
        }
      ],
      "stateMutability": "view",
      "type": "function",
      "constant": true
    },
    {
      "inputs": [
        {
          "internalType": "uint256",
          "name": "index",
          "type": "uint256"
        }
      ],
      "name": "getBatchIdByIndexDC",
      "outputs": [
        {
          "internalType": "address",
          "name": "packageID",
          "type": "address"
        }
      ],
      "stateMutability": "view",
      "type": "function",
      "constant": true
    },
    {
      "inputs": [
        {
          "internalType": "address",
          "name": "_address",
          "type": "address"
        }
      ],
      "name": "getSubContractDC",
      "outputs": [
        {
          "internalType": "address",
          "name": "SubContractDP",
          "type": "address"
        }
      ],
      "stateMutability": "view",
      "type": "function",
      "constant": true
    },
    {
      "inputs": [],
      "name": "getAllMedicinesAtDistributor",
      "outputs": [
        {
          "internalType": "address[]",
          "name": "",
          "type": "address[]"
        }
      ],
      "stateMutability": "view",
      "type": "function",
      "constant": true
    },
    {
      "inputs": [
        {
          "internalType": "address",
          "name": "p",
          "type": "address"
        },
        {
          "internalType": "bytes32",
          "name": "hash",
          "type": "bytes32"
        },
        {
          "internalType": "uint8",
          "name": "v",
          "type": "uint8"
        },
        {
          "internalType": "bytes32",
          "name": "r",
          "type": "bytes32"
        },
        {
          "internalType": "bytes32",
          "name": "s",
          "type": "bytes32"
        }
      ],
      "name": "verify",
      "outputs": [
        {
          "internalType": "bool",
          "name": "",
          "type": "bool"
        }
      ],
      "stateMutability": "pure",
      "type": "function",
      "constant": true
    }
  ],
  "bytecode": "0x608060405234801561001057600080fd5b50600080546001600160a01b03191633179055615e9d806100326000396000f3fe60806040523480156200001157600080fd5b5060043610620002055760003560e01c806391009786116200011b578063cd55152e11620000aa578063cd55152e1462000542578063d06f7b55146200054c578063e0cf92fe1462000563578063e3938b70146200057a578063f06822d81462000584578063fac0992d146200059b578063fc7e01f314620005a5578063fd302c3514620005bc578063ff2b065a14620005d357600080fd5b80639100978614620004535780639659803814620004795780639af035a31462000490578063a205a12314620004a7578063a999cca114620004b1578063b0fc028d14620004c8578063b8b16ca314620004f4578063be7ef9c0146200050b578063c22470ea146200052257600080fd5b8063381cb0dc1162000198578063381cb0dc1462000337578063412afbaf146200034e578063506535f3146200036557806362c1fe39146200038d5780636386c1c714620003bc578063798a826f14620003e25780637a0689f0146200040e5780638ccc8db714620004255780638dfa742d146200043c57600080fd5b8063050e70db146200020a57806306db832414620002395780630a421f0f1462000250578063164bcd5b14620002695780631959a00214620002805780631f90ddaf14620002ce57806327ddcd2514620002e75780633475901614620002fe5780633668669a146200032d575b600080fd5b620002216200021b36600462001d8b565b620005ea565b60405162000230919062001dba565b60405180910390f35b620002216200024a36600462001d8b565b62000623565b6200025a62000640565b60405162000230919062001e14565b620002216200027a36600462001e30565b62000732565b620002bd6200029136600462001e4a565b6001602052600090815260409020805460029091015460ff81169061010090046001600160a01b031683565b604051620002309392919062001ea3565b620002e5620002df36600462001f9e565b620007c8565b005b620002e5620002f836600462002115565b620008d7565b620002216200030f36600462001e4a565b6001600160a01b039081166000908152600760205260409020541690565b6200025a6200095e565b620002e562000348366004620021ca565b62000a49565b620002216200035f36600462001d8b565b62000b41565b6200037c6200037636600462002233565b62000b5e565b604051901515815260200162000230565b620002216200039e36600462001e4a565b6001600160a01b039081166000908152600a60205260409020541690565b620003d3620003cd36600462001e4a565b62000bdd565b604051620002309190620022f0565b62000221620003f336600462001e4a565b600a602052600090815260409020546001600160a01b031681565b620002e56200041f36600462002395565b62000d69565b620002216200043636600462001d8b565b62001007565b620002216200044d36600462001d8b565b62001024565b6200046a6200046436600462002413565b62001041565b60405162000230919062002446565b620002e56200048a36600462002395565b620010df565b62000221620004a136600462001e30565b620011b8565b6200025a62001269565b62000221620004c236600462001d8b565b62001354565b62000221620004d936600462001e4a565b6007602052600090815260409020546001600160a01b031681565b620002e56200050536600462002395565b62001371565b620002e56200051c3660046200245b565b620013b1565b336000908152600260205260409020545b60405190815260200162000230565b62000533620015ac565b620002e56200055d36600462002395565b6200160e565b620002e56200057436600462002395565b6200164e565b6200025a6200168e565b620002e562000595366004620024a2565b62001779565b6200025a62001814565b62000221620005b6366004620024e9565b620018ff565b62000221620005cd36600462001d8b565b62001a41565b620002e5620005e4366004620024a2565b62001a5e565b600660205281600052604060002081815481106200060757600080fd5b6000918252602090912001546001600160a01b03169150829050565b600260205281600052604060002081815481106200060757600080fd5b33600090815260026020526040812054606091816001600160401b038111156200066e576200066e62001ed2565b60405190808252806020026020018201604052801562000698578160200160208202803683370190505b50905060005b828110156200072b57336000908152600260205260409020805482908110620006cb57620006cb62002538565b9060005260206000200160009054906101000a90046001600160a01b0316828281518110620006fe57620006fe62002538565b6001600160a01b03909216602092830291909101909101528062000722816200254e565b9150506200069e565b5092915050565b600060053360009081526001602052604090206002015460ff16600681111562000760576200076062001e6a565b14620007895760405162461bcd60e51b8152600401620007809062002576565b60405180910390fd5b336000908152600960205260409020805483908110620007ad57620007ad62002538565b6000918252602090912001546001600160a01b031692915050565b6000546001600160a01b03163314620007e057600080fd5b6001600160a01b03811660009081526001602081815260409092208681558551620008149391909201919086019062001bc2565b508160068111156200082a576200082a62001e6a565b6001600160a01b03821660009081526001602081905260409091206002018054909160ff199091169083600681111562000868576200086862001e6a565b02179055506001600160a01b0381166000818152600160209081526040918290206002018054610100600160a81b031916610100850217905590518681527f33a7170f028b1e4f5ba321064a00ed820856a920c7f9c6636fbcf385427b1b0f910160405180910390a250505050565b60008585858585604051620008ec9062001c26565b620008fc959493929190620025be565b604051809103906000f08015801562000919573d6000803e3d6000fd5b506001600160a01b0396871660009081526004602090815260408220805460018101825590835291200180546001600160a01b03191691909716179095555050505050565b33600090815260056020526040812054606091816001600160401b038111156200098c576200098c62001ed2565b604051908082528060200260200182016040528015620009b6578160200160208202803683370190505b50905060005b828110156200072b57336000908152600560205260409020805482908110620009e957620009e962002538565b9060005260206000200160009054906101000a90046001600160a01b031682828151811062000a1c5762000a1c62002538565b6001600160a01b03909216602092830291909101909101528062000a40816200254e565b915050620009bc565b60043360009081526001602052604090206002015460ff16600681111562000a755762000a7562001e6a565b1462000ad35760405162461bcd60e51b815260206004820152602660248201527f4f6e6c792057686f6c6573616c65722063616e2063616c6c20746869732066756044820152653731ba34b7b760d11b606482015260840162000780565b3360008181526005602090815260408083208054600181018255908452919092200180546001600160a01b0319166001600160a01b0387161790555142919060008051602062005e488339815191529062000b34908690889087906200260d565b60405180910390a3505050565b600560205281600052604060002081815481106200060757600080fd5b6040805160008082526020820180845287905260ff86169282019290925260608101849052608081018390526001600160a01b0387169060019060a0016020604051602081039080840390855afa15801562000bbe573d6000803e3d6000fd5b505050602060405103516001600160a01b031614905095945050505050565b62000c096040805160808101825260008082526060602083015290918201908152600060209091015290565b6001600160a01b0382166000908152600160208181526040808420815160808101835281548152938101805483518186028101860190945280845294959194868501949192909184015b8282101562000d0957838290600052602060002001805462000c759062002644565b80601f016020809104026020016040519081016040528092919081815260200182805462000ca39062002644565b801562000cf45780601f1062000cc85761010080835404028352916020019162000cf4565b820191906000526020600020905b81548152906001019060200180831162000cd657829003601f168201915b50505050508152602001906001019062000c53565b50505090825250600282015460209091019060ff16600681111562000d325762000d3262001e6a565b600681111562000d465762000d4662001e6a565b81526002919091015461010090046001600160a01b031660209091015292915050565b60053360009081526001602052604090206002015460ff16600681111562000d955762000d9562001e6a565b14801562000e135750836001600160a01b031663abb428a66040518163ffffffff1660e01b8152600401606060405180830381865afa15801562000ddd573d6000803e3d6000fd5b505050506040513d601f19601f8201168201806040525081019062000e03919062002680565b602001516001600160a01b031633145b62000e325760405162461bcd60e51b8152600401620007809062002710565b6040516307fb74db60e21b81526000906001600160a01b03861690631fedd36c9062000e6390339060040162001dba565b6020604051808303816000875af115801562000e83573d6000803e3d6000fd5b505050506040513d601f19601f8201168201806040525081019062000ea9919062002779565b90508060020362000fc957336000908152600860209081526040808320805460018101825590845291832090910180546001600160a01b0319166001600160a01b03891690811790915581516355da145360e11b81529151909163abb428a69160048083019260609291908290030181865afa15801562000f2e573d6000803e3d6000fd5b505050506040513d601f19601f8201168201806040525081019062000f54919062002680565b516001600160a01b03161462000fc95760405163d7dcbe3b60e01b81526001600160a01b0385169063d7dcbe3b9062000f94908890339060040162002793565b600060405180830381600087803b15801562000faf57600080fd5b505af115801562000fc4573d6000803e3d6000fd5b505050505b42336001600160a01b031660008051602062005e4883398151915285888660405162000ff8939291906200260d565b60405180910390a35050505050565b600360205281600052604060002081815481106200060757600080fd5b600860205281600052604060002081815481106200060757600080fd5b6000546060906001600160a01b031633146200105c57600080fd5b82600681111562001071576200107162001e6a565b6001600160a01b03831660009081526001602081905260409091206002018054909160ff1990911690836006811115620010af57620010af62001e6a565b02179055505060408051808201909152600d81526c526f6c6520557064617465642160981b602082015292915050565b604051630a57332d60e31b81526001600160a01b038516906352b99968906200110d90869060040162001dba565b600060405180830381600087803b1580156200112857600080fd5b505af11580156200113d573d6000803e3d6000fd5b505050506001600160a01b0383811660009081526003602090815260408083208054600181018255908452919092200180546001600160a01b03191692871692909217909155514290339060008051602062005e4883398151915290620011aa908690899087906200260d565b60405180910390a350505050565b600060043360009081526001602052604090206002015460ff166006811115620011e657620011e662001e6a565b14620012455760405162461bcd60e51b815260206004820152602760248201527f4f6e6c792057686f6c6573616c65722043616e2063616c6c20746869732066756044820152663731ba34b7b71760c91b606482015260840162000780565b336000908152600660205260409020805483908110620007ad57620007ad62002538565b33600090815260046020526040812054606091816001600160401b0381111562001297576200129762001ed2565b604051908082528060200260200182016040528015620012c1578160200160208202803683370190505b50905060005b828110156200072b57336000908152600460205260409020805482908110620012f457620012f462002538565b9060005260206000200160009054906101000a90046001600160a01b031682828151811062001327576200132762002538565b6001600160a01b0390921660209283029190910190910152806200134b816200254e565b915050620012c7565b600460205281600052604060002081815481106200060757600080fd5b42836001600160a01b03167f22561ca0666e99052dd8231a6c5c337204ed5658c357aa6afcd53c207acfac67868585604051620011aa939291906200260d565b60023360009081526001602052604090206002015460ff166006811115620013dd57620013dd62001e6a565b146200143c5760405162461bcd60e51b815260206004820152602760248201527f4f6e6c79205472616e73706f727465722063616e2063616c6c207468697320666044820152663ab731ba34b7b760c91b606482015260840162000780565b600082116200148e5760405162461bcd60e51b815260206004820152601d60248201527f5472616e73706f72746572205479706520697320696e636f7272656374000000604482015260640162000780565b81600103620014fe5760405163638e9a3d60e01b81526001600160a01b0384169063638e9a3d90620014c590339060040162001dba565b600060405180830381600087803b158015620014e057600080fd5b505af1158015620014f5573d6000803e3d6000fd5b50505050505050565b81600203620015355760405163ac42a41560e01b81526001600160a01b0384169063ac42a41590620014c590339060040162001dba565b816003036200156e57604051630887851b60e31b81526001600160a01b0382169063443c28d890620014c5908690339060040162002793565b81600403620015a75760405163298abd8d60e11b81526001600160a01b038216906353157b1a90620014c5908690339060040162002793565b505050565b600060053360009081526001602052604090206002015460ff166006811115620015da57620015da62001e6a565b14620015fa5760405162461bcd60e51b8152600401620007809062002576565b503360009081526009602052604090205490565b42826001600160a01b03167f31f87de04fd141167b8131be7a8ccb2bac63361a15671c96d90c39ddc9ef909d858785604051620011aa939291906200260d565b42846001600160a01b03167f9151271dfe612a18bf915ee1609e6f94f62fd775c704a0ae2ef091519f0c9b39858585604051620011aa939291906200260d565b33600090815260086020526040812054606091816001600160401b03811115620016bc57620016bc62001ed2565b604051908082528060200260200182016040528015620016e6578160200160208202803683370190505b50905060005b828110156200072b5733600090815260086020526040902080548290811062001719576200171962002538565b9060005260206000200160009054906101000a90046001600160a01b03168282815181106200174c576200174c62002538565b6001600160a01b03909216602092830291909101909101528062001770816200254e565b915050620016ec565b6000833384846040516200178d9062001c34565b6200179c9493929190620027ad565b604051809103906000f080158015620017b9573d6000803e3d6000fd5b5033600090815260066020908152604080832080546001810182559084528284200180546001600160a01b039586166001600160a01b0319918216811790925598909416835260079091529020805490951617909355505050565b33600090815260036020526040812054606091816001600160401b0381111562001842576200184262001ed2565b6040519080825280602002602001820160405280156200186c578160200160208202803683370190505b50905060005b828110156200072b573360009081526003602052604090208054829081106200189f576200189f62002538565b9060005260206000200160009054906101000a90046001600160a01b0316828281518110620018d257620018d262002538565b6001600160a01b039092166020928302919091019091015280620018f6816200254e565b91505062001872565b60008033600233426040516020016200193692919060609290921b6bffffffffffffffffffffffff19168252601482015260340190565b60408051601f19818403018152908290526200195291620027d8565b602060405180830381855afa15801562001970573d6000803e3d6000fd5b5050506040513d601f19601f8201168201806040525081019062001995919062002779565b60601c87878787604051620019aa9062001c42565b6001600160a01b0396871681529486166020860152604085019390935260608401919091528316608083015290911660a082015260c001604051809103906000f080158015620019fe573d6000803e3d6000fd5b503360009081526002602090815260408220805460018101825590835291200180546001600160a01b0319166001600160a01b0383161790559695505050505050565b600960205281600052604060002081815481106200060757600080fd5b60053360009081526001602052604090206002015460ff16600681111562001a8a5762001a8a62001e6a565b14801562001b085750826001600160a01b031663abb428a66040518163ffffffff1660e01b8152600401606060405180830381865afa15801562001ad2573d6000803e3d6000fd5b505050506040513d601f19601f8201168201806040525081019062001af8919062002680565b602001516001600160a01b031633145b62001b275760405162461bcd60e51b8152600401620007809062002710565b60008333848460405162001b3b9062001c50565b62001b4a9493929190620027ad565b604051809103906000f08015801562001b67573d6000803e3d6000fd5b5033600090815260096020908152604080832080546001810182559084528284200180546001600160a01b039586166001600160a01b03199182168117909255989094168352600a9091529020805490951617909355505050565b82805482825590600052602060002090810192821562001c14579160200282015b8281111562001c14578251805162001c0391849160209091019062001c5e565b509160200191906001019062001be3565b5062001c2292915062001ce9565b5090565b611bb980620027f783390190565b61041a80620043b083390190565b61126080620047ca83390190565b61041e8062005a2a83390190565b82805462001c6c9062002644565b90600052602060002090601f01602090048101928262001c90576000855562001cdb565b82601f1062001cab57805160ff191683800117855562001cdb565b8280016001018555821562001cdb579182015b8281111562001cdb57825182559160200191906001019062001cbe565b5062001c2292915062001d0a565b8082111562001c2257600062001d00828262001d21565b5060010162001ce9565b5b8082111562001c22576000815560010162001d0b565b50805462001d2f9062002644565b6000825580601f1062001d40575050565b601f01602090049060005260206000209081019062001d60919062001d0a565b50565b6001600160a01b038116811462001d6057600080fd5b803562001d868162001d63565b919050565b6000806040838503121562001d9f57600080fd5b823562001dac8162001d63565b946020939093013593505050565b6001600160a01b0391909116815260200190565b600081518084526020808501945080840160005b8381101562001e095781516001600160a01b03168752958201959082019060010162001de2565b509495945050505050565b60208152600062001e29602083018462001dce565b9392505050565b60006020828403121562001e4357600080fd5b5035919050565b60006020828403121562001e5d57600080fd5b813562001e298162001d63565b634e487b7160e01b600052602160045260246000fd5b6007811062001e9f57634e487b7160e01b600052602160045260246000fd5b9052565b8381526060810162001eb9602083018562001e80565b6001600160a01b03929092166040919091015292915050565b634e487b7160e01b600052604160045260246000fd5b604051601f8201601f191681016001600160401b038111828210171562001f135762001f1362001ed2565b604052919050565b60006001600160401b0382111562001f375762001f3762001ed2565b5060051b60200190565b60006001600160401b0383111562001f5d5762001f5d62001ed2565b62001f72601f8401601f191660200162001ee8565b905082815283838301111562001f8757600080fd5b828260208301376000602084830101529392505050565b6000806000806080858703121562001fb557600080fd5b843593506020808601356001600160401b038082111562001fd557600080fd5b818801915088601f83011262001fea57600080fd5b81356200200162001ffb8262001f1b565b62001ee8565b81815260059190911b8301840190848101908b8311156200202157600080fd5b8585015b8381101562002074578035858111156200203f5760008081fd5b8601603f81018e13620020525760008081fd5b620020658e898301356040840162001f41565b84525091860191860162002025565b50975050505060408701359350620020929150506060860162001d79565b905092959194509250565b600082601f830112620020af57600080fd5b81356020620020c262001ffb8362001f1b565b82815260059290921b84018101918181019086841115620020e257600080fd5b8286015b848110156200210a578035620020fc8162001d63565b8352918301918301620020e6565b509695505050505050565b600080600080600060a086880312156200212e57600080fd5b85356200213b8162001d63565b94506020860135935060408601356001600160401b03808211156200215f57600080fd5b6200216d89838a016200209d565b94506060880135935060808801359150808211156200218b57600080fd5b506200219a888289016200209d565b9150509295509295909350565b600082601f830112620021b957600080fd5b62001e298383356020850162001f41565b600080600060608486031215620021e057600080fd5b8335620021ed8162001d63565b92506020840135620021ff8162001d63565b915060408401356001600160401b038111156200221b57600080fd5b6200222986828701620021a7565b9150509250925092565b600080600080600060a086880312156200224c57600080fd5b8535620022598162001d63565b945060208601359350604086013560ff811681146200227757600080fd5b94979396509394606081013594506080013592915050565b60005b83811015620022ac57818101518382015260200162002292565b83811115620022bc576000848401525b50505050565b60008151808452620022dc8160208601602086016200228f565b601f01601f19169290920160200192915050565b6000602080835260a08301845182850152818501516080604086015281815180845260c08701915060c08160051b8801019350848301925060005b818110156200235d5760bf198886030183526200234a858551620022c2565b945092850192918501916001016200232b565b505050506040850151915062002377606085018362001e80565b60608501516001600160a01b03811660808601529150949350505050565b60008060008060808587031215620023ac57600080fd5b8435620023b98162001d63565b93506020850135620023cb8162001d63565b92506040850135620023dd8162001d63565b915060608501356001600160401b03811115620023f957600080fd5b6200240787828801620021a7565b91505092959194509250565b600080604083850312156200242757600080fd5b8235915060208301356200243b8162001d63565b809150509250929050565b60208152600062001e296020830184620022c2565b6000806000606084860312156200247157600080fd5b83356200247e8162001d63565b9250602084013591506040840135620024978162001d63565b809150509250925092565b600080600060608486031215620024b857600080fd5b8335620024c58162001d63565b92506020840135620024d78162001d63565b91506040840135620024978162001d63565b600080600080608085870312156200250057600080fd5b843593506020850135925060408501356200251b8162001d63565b915060608501356200252d8162001d63565b939692955090935050565b634e487b7160e01b600052603260045260246000fd5b6000600182016200256f57634e487b7160e01b600052601160045260246000fd5b5060010190565b60208082526028908201527f4f6e6c79204469737472696275746f722043616e2063616c6c207468697320666040820152673ab731ba34b7b71760c11b606082015260800190565b60018060a01b038616815284602082015260a060408201526000620025e760a083018662001dce565b846060840152828103608084015262002601818562001dce565b98975050505050505050565b6001600160a01b038481168252831660208201526060604082018190526000906200263b90830184620022c2565b95945050505050565b600181811c908216806200265957607f821691505b6020821081036200267a57634e487b7160e01b600052602260045260246000fd5b50919050565b6000606082840312156200269357600080fd5b82601f830112620026a357600080fd5b604051606081018181106001600160401b0382111715620026c857620026c862001ed2565b604052806060840185811115620026de57600080fd5b845b8181101562002705578051620026f68162001d63565b835260209283019201620026e0565b509195945050505050565b60208082526043908201527f4f6e6c79204469737472696275746f72206f722063757272656e74206f776e6560408201527f72206f66207061636b6167652063616e2063616c6c20746869732066756e637460608201526234b7b760e91b608082015260a00190565b6000602082840312156200278c57600080fd5b5051919050565b6001600160a01b0392831681529116602082015260400190565b6001600160a01b03948516815292841660208401529083166040830152909116606082015260800190565b60008251620027ec8184602087016200228f565b919091019291505056fe60806040523480156200001157600080fd5b5060405162001bb938038062001bb983398101604081905262000034916200029e565b600080546001600160a01b0387166001600160a01b0319918216811790925560048054909116909117905560018490558251620000799060029060208601906200012f565b5060088290558051620000949060039060208401906200012f565b50600580546001600160a01b03199081169091556006805490911690556009805460ff191690556040516000908690620000ce9062000199565b6001600160a01b039091168152602001604051809103906000f080158015620000fb573d6000803e3d6000fd5b50600980546001600160a01b0390921661010002610100600160a81b0319909216919091179055506200032f945050505050565b82805482825590600052602060002090810192821562000187579160200282015b828111156200018757825182546001600160a01b0319166001600160a01b0390911617825560209092019160019091019062000150565b5062000195929150620001a7565b5090565b610c568062000f6383390190565b5b80821115620001955760008155600101620001a8565b80516001600160a01b0381168114620001d657600080fd5b919050565b634e487b7160e01b600052604160045260246000fd5b600082601f8301126200020357600080fd5b815160206001600160401b0380831115620002225762000222620001db565b8260051b604051601f19603f830116810181811084821117156200024a576200024a620001db565b6040529384528581018301938381019250878511156200026957600080fd5b83870191505b8482101562000293576200028382620001be565b835291830191908301906200026f565b979650505050505050565b600080600080600060a08688031215620002b757600080fd5b620002c286620001be565b6020870151604088015191965094506001600160401b0380821115620002e757600080fd5b620002f589838a01620001f1565b94506060880151935060808801519150808211156200031357600080fd5b506200032288828901620001f1565b9150509295509295909350565b610c24806200033f6000396000f3fe608060405234801561001057600080fd5b50600436106100b45760003560e01c8063ac42a41511610071578063ac42a415146101ac578063c8f5f189146101bf578063d2f3fcc7146101d2578063e002c8a5146101da578063e138d4ce146101f7578063f5c0e3831461022757600080fd5b80631fedd36c146100b95780632f1d7588146100df57806393a668b7146100f457806396991e7914610107578063aab3a9d614610137578063abb428a614610197575b600080fd5b6100cc6100c73660046109f3565b61023a565b6040519081526020015b60405180910390f35b6100f26100ed366004610a15565b6104c5565b005b6100f26101023660046109f3565b610535565b6100f26101153660046109f3565b600680546001600160a01b0319166001600160a01b0392909216919091179055565b6100f26101453660046109f3565b600380546001810182556000919091527fc2575a0e9e593c00f959f8c92f12db2869c3395a3b0502d05e2516446f71f85b0180546001600160a01b0319166001600160a01b0392909216919091179055565b61019f610589565b6040516100d69190610a48565b6100f26101ba3660046109f3565b6105c4565b6100f26101cd3660046109f3565b610770565b6100cc6107d4565b6101e26107f3565b6040516100d699989796959493929190610ac6565b6100f26102053660046109f3565b600580546001600160a01b0319166001600160a01b0392909216919091179055565b6100f2610235366004610a15565b61092f565b6005546000906001600160a01b038381169116148061026657506006546001600160a01b038381169116145b6102d55760405162461bcd60e51b815260206004820152603560248201527f4f6e6c792057686f6c6573616c6572206f72204469737472696275746f72206360448201527430b71031b0b636103a3434b990333ab731ba34b7b760591b60648201526084015b60405180910390fd5b60095460019060ff1660068111156102ef576102ef610b3a565b10156103395760405162461bcd60e51b8152602060048201526019602482015278141c9bd91d58dd081b9bdd081c1a58dad959081d5c081e595d603a1b60448201526064016102cc565b6005546001600160a01b03838116911614801561036c5750600160095460ff16600681111561036a5761036a610b3a565b145b156103fc576009805460ff1916600390811790915560055481546001600160a01b03909116919061039f90600190610b50565b815481106103af576103af610b75565b6000918252602091829020015460408051600281526003938101939093526001600160a01b03909116913091600080516020610bcf833981519152910160405180910390a4506001919050565b6006546001600160a01b03838116911614801561042f5750600260095460ff16600681111561042d5761042d610b3a565b145b156104bd576009805460ff19166004179055600654600380546001600160a01b039092169161046090600190610b50565b8154811061047057610470610b75565b6000918252602091829020015460408051600381526004938101939093526001600160a01b03909116913091600080516020610bcf833981519152910160405180910390a4506002919050565b506000919050565b6006546001600160a01b038281169116146104f25760405162461bcd60e51b81526004016102cc90610b8b565b600780546001600160a01b0319166001600160a01b03841617905560055b6009805460ff1916600183600681111561052c5761052c610b3a565b02179055505050565b6006546001600160a01b038281169116146105625760405162461bcd60e51b81526004016102cc90610b8b565b60045b6009805460ff1916600183600681111561058157610581610b3a565b021790555050565b6105916109b9565b50604080516060810182526005546001600160a01b03908116825260065481166020830152600754169181019190915290565b600380546105d490600190610b50565b815481106105e4576105e4610b75565b6000918252602090912001546001600160a01b0382811691161461065a5760405162461bcd60e51b815260206004820152602760248201527f4f6e6c79205472616e73706f727465722063616e2063616c6c207468697320666044820152663ab731ba34b7b760c91b60648201526084016102cc565b600060095460ff16600681111561067357610673610b3a565b146106c05760405162461bcd60e51b815260206004820181905260248201527f5061636b616765206d757374206265206174204d616e7566616374757265722e60448201526064016102cc565b6005546001600160a01b03161561072357600980546001919060ff19168280021790555060055460408051600180825260208201526001600160a01b03928316928416913091600080516020610bcf83398151915291015b60405180910390a450565b600980546002919060ff191660018302179055506006546040805160018152600260208201526001600160a01b03928316928416913091600080516020610bcf8339815191529101610718565b6007546001600160a01b038281169116146107cd5760405162461bcd60e51b815260206004820181905260248201527f5468697320437573746f6d6572206973206e6f74204173736f6369617465642e60448201526064016102cc565b6006610565565b60095460009060ff1660068111156107ee576107ee610b3a565b905090565b6004546001546008546006805460095460009586956060958795879587958695869586956001600160a01b03928316959194600294919360039391169160ff169081111561084357610843610b3a565b6009546005548654604080516020808402820181019092528281526101009094046001600160a01b03908116949316929189918301828280156108af57602002820191906000526020600020905b81546001600160a01b03168152600190910190602001808311610891575b505050505096508480548060200260200160405190810160405280929190818152602001828054801561090b57602002820191906000526020600020905b81546001600160a01b031681526001909101906020018083116108ed575b50505050509450985098509850985098509850985098509850909192939495969798565b6005546001600160a01b038281169116146109975760405162461bcd60e51b815260206004820152602260248201527f746869732057686f6c6573616c6572206973206e6f74204173736f6369617465604482015261321760f11b60648201526084016102cc565b600680546001600160a01b0319166001600160a01b0384161790556002610510565b60405180606001604052806003906020820280368337509192915050565b80356001600160a01b03811681146109ee57600080fd5b919050565b600060208284031215610a0557600080fd5b610a0e826109d7565b9392505050565b60008060408385031215610a2857600080fd5b610a31836109d7565b9150610a3f602084016109d7565b90509250929050565b60608101818360005b6003811015610a795781516001600160a01b0316835260209283019290910190600101610a51565b50505092915050565b600081518084526020808501945080840160005b83811015610abb5781516001600160a01b031687529582019590820190600101610a96565b509495945050505050565b6001600160a01b038a81168252602082018a905261012060408301819052600091610af38483018c610a82565b91508960608501528382036080850152610b0d828a610a82565b97811660a085015260c0840196909652505091831660e08301529091166101009091015295945050505050565b634e487b7160e01b600052602160045260246000fd5b600082821015610b7057634e487b7160e01b600052601160045260246000fd5b500390565b634e487b7160e01b600052603260045260246000fd5b60208082526023908201527f54686973204469737472696275746f72206973206e6f74204173736f6369617460408201526232b21760e91b60608201526080019056fe7e89c4b1a4e2b51aae84eb1f90e8a34cb792ece5ac5cb63db4830c891220b28da2646970667358221220eddab4ae09d2ded320edde656b2354f513a82f41a6005755d2b5e1f0b94a748d64736f6c634300080d00336080604052600060025534801561001557600080fd5b50604051610c56380380610c5683398101604081905261003491610059565b600080546001600160a01b0319166001600160a01b0392909216919091179055610089565b60006020828403121561006b57600080fd5b81516001600160a01b038116811461008257600080fd5b9392505050565b610bbe806100986000396000f3fe608060405234801561001057600080fd5b506004361061004c5760003560e01c806327506f53146100515780633626a3681461006f57806378ce1365146100845780639ace38c21461009b575b600080fd5b6100596100c1565b60405161006691906107e0565b60405180910390f35b61008261007d36600461096a565b610310565b005b61008d60025481565b604051908152602001610066565b6100ae6100a9366004610a01565b6105a0565b6040516100669796959493929190610a1a565b60025460609060008167ffffffffffffffff8111156100e2576100e26108c7565b60405190808252806020026020018201604052801561014857816020015b6040805160e0810182526000808252602080830182905292820181905260608083018290526080830181905260a083015260c082015282526000199092019101816101005790505b50905060005b8281101561030957600081815260016020818152604092839020835160e08101855281548152928101546001600160a01b0390811692840192909252600281015490911692820192909252600382015460608201526004820180549192916080840191906101bb90610a7a565b80601f01602080910402602001604051908101604052809291908181526020018280546101e790610a7a565b80156102345780601f1061020957610100808354040283529160200191610234565b820191906000526020600020905b81548152906001019060200180831161021757829003601f168201915b5050505050815260200160058201805461024d90610a7a565b80601f016020809104026020016040519081016040528092919081815260200182805461027990610a7a565b80156102c65780601f1061029b576101008083540402835291602001916102c6565b820191906000526020600020905b8154815290600101906020018083116102a957829003601f168201915b505050505081526020016006820154815250508282815181106102eb576102eb610ab4565b6020026020010181905250808061030190610ae0565b91505061014e565b5092915050565b60025442906000036103f2576040805160e0810182528881526001600160a01b038089166020808401918252898316848601908152606085018a8152608086018a815260a087018a905260c08701899052600280546000908152600180875299902088518155955198860180549988166001600160a01b03199a8b161790559251928501805493909616929097169190911790935591516003820155925180519293926103c392600485019201906106fa565b5060a082015180516103df9160058401916020909101906106fa565b5060c0820151816006015590505061053b565b836001600060016002546104069190610af9565b815260200190815260200160002060000154146104695760405162461bcd60e51b815260206004820152601b60248201527f5472616e73616374696f6e206572726f72206f63637572726564210000000000604482015260640160405180910390fd5b6040805160e0810182528881526001600160a01b038089166020808401918252898316848601908152606085018a8152608086018a815260a087018a905260c08701899052600280546000908152600180875299902088518155955198860180549988166001600160a01b03199a8b1617905592519285018054939096169290971691909117909355915160038201559251805192939261051092600485019201906106fa565b5060a0820151805161052c9160058401916020909101906106fa565b5060c082015181600601559050505b60016002600082825461054e9190610b10565b90915550506040517f30d01d358fb0899fe4d50947b2e9301c952d9eed09b14c7ecdcbeed4434557c49061058f90899089908990899087908a908a90610b28565b60405180910390a150505050505050565b6001602081905260009182526040909120805491810154600282015460038301546004840180546001600160a01b0394851695949093169391926105e390610a7a565b80601f016020809104026020016040519081016040528092919081815260200182805461060f90610a7a565b801561065c5780601f106106315761010080835404028352916020019161065c565b820191906000526020600020905b81548152906001019060200180831161063f57829003601f168201915b50505050509080600501805461067190610a7a565b80601f016020809104026020016040519081016040528092919081815260200182805461069d90610a7a565b80156106ea5780601f106106bf576101008083540402835291602001916106ea565b820191906000526020600020905b8154815290600101906020018083116106cd57829003601f168201915b5050505050908060060154905087565b82805461070690610a7a565b90600052602060002090601f016020900481019282610728576000855561076e565b82601f1061074157805160ff191683800117855561076e565b8280016001018555821561076e579182015b8281111561076e578251825591602001919060010190610753565b5061077a92915061077e565b5090565b5b8082111561077a576000815560010161077f565b6000815180845260005b818110156107b95760208185018101518683018201520161079d565b818111156107cb576000602083870101525b50601f01601f19169290920160200192915050565b60006020808301818452808551808352604092508286019150828160051b87010184880160005b8381101561089d57888303603f19018552815180518452878101516001600160a01b03908116898601528782015116878501526060808201519085015260808082015160e0828701819052919061086083880182610793565b9250505060a0808301518683038288015261087b8382610793565b60c0948501519790940196909652505094870194925090860190600101610807565b509098975050505050505050565b80356001600160a01b03811681146108c257600080fd5b919050565b634e487b7160e01b600052604160045260246000fd5b600082601f8301126108ee57600080fd5b813567ffffffffffffffff80821115610909576109096108c7565b604051601f8301601f19908116603f01168101908282118183101715610931576109316108c7565b8160405283815286602085880101111561094a57600080fd5b836020870160208301376000602085830101528094505050505092915050565b60008060008060008060c0878903121561098357600080fd5b86359550610993602088016108ab565b94506109a1604088016108ab565b935060608701359250608087013567ffffffffffffffff808211156109c557600080fd5b6109d18a838b016108dd565b935060a08901359150808211156109e757600080fd5b506109f489828a016108dd565b9150509295509295509295565b600060208284031215610a1357600080fd5b5035919050565b8781526001600160a01b038781166020830152861660408201526060810185905260e060808201819052600090610a5390830186610793565b82810360a0840152610a658186610793565b9150508260c083015298975050505050505050565b600181811c90821680610a8e57607f821691505b602082108103610aae57634e487b7160e01b600052602260045260246000fd5b50919050565b634e487b7160e01b600052603260045260246000fd5b634e487b7160e01b600052601160045260246000fd5b600060018201610af257610af2610aca565b5060010190565b600082821015610b0b57610b0b610aca565b500390565b60008219821115610b2357610b23610aca565b500190565b8781526001600160a01b03878116602083015286166040820152606081018590526080810184905260e060a08201819052600090610b6890830185610793565b82810360c0840152610b7a8185610793565b9a995050505050505050505056fea2646970667358221220fcf436a1698cfe8cc4f564df70520d77bd06b1cbdf8312e63f9312a68399669464736f6c634300080d0033608060405234801561001057600080fd5b5060405161041a38038061041a83398101604081905261002f916100b6565b600080546001600160a01b039485166001600160a01b0319918216811790925560018054968616968216969096179095556002805486169091179055600380549284169290941691909117909255600480546001600160a81b0319169290911691909117905561010a565b80516001600160a01b03811681146100b157600080fd5b919050565b600080600080608085870312156100cc57600080fd5b6100d58561009a565b93506100e36020860161009a565b92506100f16040860161009a565b91506100ff6060860161009a565b905092959194509250565b610301806101196000396000f3fe608060405234801561001057600080fd5b50600436106100415760003560e01c8063443c28d814610046578063d2f3fcc71461005b578063d7dcbe3b14610075575b600080fd5b610059610054366004610282565b610088565b005b610063610182565b60405190815260200160405180910390f35b610059610083366004610282565b6101a8565b6003546001600160a01b038281169116146101025760405162461bcd60e51b815260206004820152602f60248201527f4f6e6c79204173736f63696174656420736869707065722063616e2063616c6c60448201526e103a3434b990333ab731ba34b7b71760891b60648201526084015b60405180910390fd5b60048054600160a01b60ff60a01b19821617825560025460405163f5c0e38360e01b81526001600160a01b03928316938101939093528116602483015283169063f5c0e383906044015b600060405180830381600087803b15801561016657600080fd5b505af115801561017a573d6000803e3d6000fd5b505050505050565b600454600090600160a01b900460ff1660028111156101a3576101a36102b5565b905090565b6004546001600160a01b0382811691161461021e5760405162461bcd60e51b815260206004820152603060248201527f4f6e6c79204173736f6369617465642072656365697665722063616e2063616c60448201526f36103a3434b990333ab731ba34b7b71760811b60648201526084016100f9565b600480546002919060ff60a01b1916600160a01b8302179055506040516393a668b760e01b81526001600160a01b0382811660048301528316906393a668b79060240161014c565b80356001600160a01b038116811461027d57600080fd5b919050565b6000806040838503121561029557600080fd5b61029e83610266565b91506102ac60208401610266565b90509250929050565b634e487b7160e01b600052602160045260246000fdfea2646970667358221220a6bd2404c6428434ff24d81a252ea2cc18679d9872c8cf43577f453d2c05931364736f6c634300080d0033608060405234801561001057600080fd5b5060405161126038038061126083398101604081905261002f91610123565b600080546001600160a01b03199081166001600160a01b0389811691821784556001805484168a8316179055600288905560038790556004805484168783161790556005805490931690851617909155600680546001600160a81b031916909117905560405182906100a0906100fa565b6001600160a01b039091168152602001604051809103906000f0801580156100cc573d6000803e3d6000fd5b50600880546001600160a01b0319166001600160a01b03929092169190911790555061018995505050505050565b610c568061060a83390190565b80516001600160a01b038116811461011e57600080fd5b919050565b60008060008060008060c0878903121561013c57600080fd5b61014587610107565b955061015360208801610107565b9450604087015193506060870151925061016f60808801610107565b915061017d60a08801610107565b90509295509295509295565b610472806101986000396000f3fe608060405234801561001057600080fd5b50600436106100575760003560e01c806350e073bc1461005c57806352b999681461008e578063638e9a3d146100a15780636b099dca146100b457806380723520146100cf575b600080fd5b61008c61006a3660046103f6565b600580546001600160a01b0319166001600160a01b0392909216919091179055565b005b61008c61009c3660046103f6565b61012a565b61008c6100af3660046103f6565b610285565b6100bc6103d0565b6040519081526020015b60405180910390f35b600154600254600354600654600454600554600854604080516001600160a01b0398891681526020810197909752860194909452918516606085015284166080840152831660a08301529190911660c082015260e0016100c6565b6005546001600160a01b038281169116146101ae5760405162461bcd60e51b815260206004820152603960248201527f4f6e6c79204d616e756661637475726572206f6620746865207061636b6167656044820152782063616e20726563656965766520746865207061636b61676560381b60648201526084015b60405180910390fd5b6001600654600160a01b900460ff1660028111156101ce576101ce610426565b146102175760405162461bcd60e51b8152602060048201526019602482015278141c9bd91d58dd081b9bdd081c1a58dad959081d5c081e595d603a1b60448201526064016101a5565b6006805460ff60a01b1916600160a11b1790556005546004546001805460408051928352600260208401526001600160a01b039485169493841693909116917f7e89c4b1a4e2b51aae84eb1f90e8a34cb792ece5ac5cb63db4830c891220b28d91015b60405180910390a450565b6004546001600160a01b038281169116146102fb5760405162461bcd60e51b815260206004820152603060248201527f4f6e6c79207472616e73706f72746572206f6620746865207061636b6167652060448201526f63616e207069636b207061636b61676560801b60648201526084016101a5565b6000600654600160a01b900460ff16600281111561031b5761031b610426565b146103685760405162461bcd60e51b815260206004820152601c60248201527f5061636b616765206d75737420626520617420537570706c6965722e0000000060448201526064016101a5565b6006805460ff60a01b1916600160a01b179055600554600454600180546040805183815260208101939093526001600160a01b039485169493841693909116917f7e89c4b1a4e2b51aae84eb1f90e8a34cb792ece5ac5cb63db4830c891220b28d910161027a565b600654600090600160a01b900460ff1660028111156103f1576103f1610426565b905090565b60006020828403121561040857600080fd5b81356001600160a01b038116811461041f57600080fd5b9392505050565b634e487b7160e01b600052602160045260246000fdfea2646970667358221220637660e9dc413fe8f2f1fc29be2fcbd9d36c2cbff94d3ccfa13b9bf4d175d74b64736f6c634300080d00336080604052600060025534801561001557600080fd5b50604051610c56380380610c5683398101604081905261003491610059565b600080546001600160a01b0319166001600160a01b0392909216919091179055610089565b60006020828403121561006b57600080fd5b81516001600160a01b038116811461008257600080fd5b9392505050565b610bbe806100986000396000f3fe608060405234801561001057600080fd5b506004361061004c5760003560e01c806327506f53146100515780633626a3681461006f57806378ce1365146100845780639ace38c21461009b575b600080fd5b6100596100c1565b60405161006691906107e0565b60405180910390f35b61008261007d36600461096a565b610310565b005b61008d60025481565b604051908152602001610066565b6100ae6100a9366004610a01565b6105a0565b6040516100669796959493929190610a1a565b60025460609060008167ffffffffffffffff8111156100e2576100e26108c7565b60405190808252806020026020018201604052801561014857816020015b6040805160e0810182526000808252602080830182905292820181905260608083018290526080830181905260a083015260c082015282526000199092019101816101005790505b50905060005b8281101561030957600081815260016020818152604092839020835160e08101855281548152928101546001600160a01b0390811692840192909252600281015490911692820192909252600382015460608201526004820180549192916080840191906101bb90610a7a565b80601f01602080910402602001604051908101604052809291908181526020018280546101e790610a7a565b80156102345780601f1061020957610100808354040283529160200191610234565b820191906000526020600020905b81548152906001019060200180831161021757829003601f168201915b5050505050815260200160058201805461024d90610a7a565b80601f016020809104026020016040519081016040528092919081815260200182805461027990610a7a565b80156102c65780601f1061029b576101008083540402835291602001916102c6565b820191906000526020600020905b8154815290600101906020018083116102a957829003601f168201915b505050505081526020016006820154815250508282815181106102eb576102eb610ab4565b6020026020010181905250808061030190610ae0565b91505061014e565b5092915050565b60025442906000036103f2576040805160e0810182528881526001600160a01b038089166020808401918252898316848601908152606085018a8152608086018a815260a087018a905260c08701899052600280546000908152600180875299902088518155955198860180549988166001600160a01b03199a8b161790559251928501805493909616929097169190911790935591516003820155925180519293926103c392600485019201906106fa565b5060a082015180516103df9160058401916020909101906106fa565b5060c0820151816006015590505061053b565b836001600060016002546104069190610af9565b815260200190815260200160002060000154146104695760405162461bcd60e51b815260206004820152601b60248201527f5472616e73616374696f6e206572726f72206f63637572726564210000000000604482015260640160405180910390fd5b6040805160e0810182528881526001600160a01b038089166020808401918252898316848601908152606085018a8152608086018a815260a087018a905260c08701899052600280546000908152600180875299902088518155955198860180549988166001600160a01b03199a8b1617905592519285018054939096169290971691909117909355915160038201559251805192939261051092600485019201906106fa565b5060a0820151805161052c9160058401916020909101906106fa565b5060c082015181600601559050505b60016002600082825461054e9190610b10565b90915550506040517f30d01d358fb0899fe4d50947b2e9301c952d9eed09b14c7ecdcbeed4434557c49061058f90899089908990899087908a908a90610b28565b60405180910390a150505050505050565b6001602081905260009182526040909120805491810154600282015460038301546004840180546001600160a01b0394851695949093169391926105e390610a7a565b80601f016020809104026020016040519081016040528092919081815260200182805461060f90610a7a565b801561065c5780601f106106315761010080835404028352916020019161065c565b820191906000526020600020905b81548152906001019060200180831161063f57829003601f168201915b50505050509080600501805461067190610a7a565b80601f016020809104026020016040519081016040528092919081815260200182805461069d90610a7a565b80156106ea5780601f106106bf576101008083540402835291602001916106ea565b820191906000526020600020905b8154815290600101906020018083116106cd57829003601f168201915b5050505050908060060154905087565b82805461070690610a7a565b90600052602060002090601f016020900481019282610728576000855561076e565b82601f1061074157805160ff191683800117855561076e565b8280016001018555821561076e579182015b8281111561076e578251825591602001919060010190610753565b5061077a92915061077e565b5090565b5b8082111561077a576000815560010161077f565b6000815180845260005b818110156107b95760208185018101518683018201520161079d565b818111156107cb576000602083870101525b50601f01601f19169290920160200192915050565b60006020808301818452808551808352604092508286019150828160051b87010184880160005b8381101561089d57888303603f19018552815180518452878101516001600160a01b03908116898601528782015116878501526060808201519085015260808082015160e0828701819052919061086083880182610793565b9250505060a0808301518683038288015261087b8382610793565b60c0948501519790940196909652505094870194925090860190600101610807565b509098975050505050505050565b80356001600160a01b03811681146108c257600080fd5b919050565b634e487b7160e01b600052604160045260246000fd5b600082601f8301126108ee57600080fd5b813567ffffffffffffffff80821115610909576109096108c7565b604051601f8301601f19908116603f01168101908282118183101715610931576109316108c7565b8160405283815286602085880101111561094a57600080fd5b836020870160208301376000602085830101528094505050505092915050565b60008060008060008060c0878903121561098357600080fd5b86359550610993602088016108ab565b94506109a1604088016108ab565b935060608701359250608087013567ffffffffffffffff808211156109c557600080fd5b6109d18a838b016108dd565b935060a08901359150808211156109e757600080fd5b506109f489828a016108dd565b9150509295509295509295565b600060208284031215610a1357600080fd5b5035919050565b8781526001600160a01b038781166020830152861660408201526060810185905260e060808201819052600090610a5390830186610793565b82810360a0840152610a658186610793565b9150508260c083015298975050505050505050565b600181811c90821680610a8e57607f821691505b602082108103610aae57634e487b7160e01b600052602260045260246000fd5b50919050565b634e487b7160e01b600052603260045260246000fd5b634e487b7160e01b600052601160045260246000fd5b600060018201610af257610af2610aca565b5060010190565b600082821015610b0b57610b0b610aca565b500390565b60008219821115610b2357610b23610aca565b500190565b8781526001600160a01b03878116602083015286166040820152606081018590526080810184905260e060a08201819052600090610b6890830185610793565b82810360c0840152610b7a8185610793565b9a995050505050505050505056fea2646970667358221220fcf436a1698cfe8cc4f564df70520d77bd06b1cbdf8312e63f9312a68399669464736f6c634300080d0033608060405234801561001057600080fd5b5060405161041e38038061041e83398101604081905261002f916100b6565b600080546001600160a01b039485166001600160a01b0319918216811790925560018054968616968216969096179095556002805486169091179055600380549284169290941691909117909255600480546001600160a81b0319169290911691909117905561010a565b80516001600160a01b03811681146100b157600080fd5b919050565b600080600080608085870312156100cc57600080fd5b6100d58561009a565b93506100e36020860161009a565b92506100f16040860161009a565b91506100ff6060860161009a565b905092959194509250565b610305806101196000396000f3fe608060405234801561001057600080fd5b50600436106100415760003560e01c806353157b1a14610046578063c0114d061461005b578063f7addc3e14610075575b600080fd5b610059610054366004610286565b610088565b005b610063610186565b60405190815260200160405180910390f35b610059610083366004610286565b6101ac565b6003546001600160a01b038281169116146101065760405162461bcd60e51b815260206004820152603360248201527f4f6e6c79204173736f636961746564207472616e73706f727465722063616e2060448201527231b0b636103a3434b990333ab731ba34b7b71760691b60648201526084015b60405180910390fd5b60048054600160a01b60ff60a01b1982161782556002546040516305e3aeb160e31b81526001600160a01b039283169381019390935281166024830152831690632f1d7588906044015b600060405180830381600087803b15801561016a57600080fd5b505af115801561017e573d6000803e3d6000fd5b505050505050565b600454600090600160a01b900460ff1660028111156101a7576101a76102b9565b905090565b6004546001600160a01b038281169116146102225760405162461bcd60e51b815260206004820152603060248201527f4f6e6c79204173736f6369617465642072656365697665722063616e2063616c60448201526f36103a3434b990333ab731ba34b7b71760811b60648201526084016100fd565b600480546002919060ff60a01b1916600160a01b83021790555060405163c8f5f18960e01b81526001600160a01b03828116600483015283169063c8f5f18990602401610150565b80356001600160a01b038116811461028157600080fd5b919050565b6000806040838503121561029957600080fd5b6102a28361026a565b91506102b06020840161026a565b90509250929050565b634e487b7160e01b600052602160045260246000fdfea2646970667358221220ae06ab813a717f2d6671018d5a73dfe904d56c928db7d25da263e2a43e8cadb064736f6c634300080d0033cfbd3a658e0a38877312e3f5767ddb0c6541620d7bd0368d43e0b94a55d9876ea2646970667358221220c62fe814b7e5563b11f78eaf4f4ca5ddc001a064d64295fd298189f4f950e1f364736f6c634300080d0033",
  "immutableReferences": {},
  "source": "// SPDX-License-Identifier: MIT\npragma solidity ^0.8.13;\npragma experimental ABIEncoderV2;\n\nimport './RawMaterial.sol';\n// import './Supplier.sol';\n// import './Transporter.sol';\nimport './Medicine.sol';\n// import './Manufacturer.sol';\nimport './MedicineW_D.sol';\n// import './Wholesaler.sol';\nimport './MedicineD_C.sol';\n// import './Distributor.sol';\n// import './Customer.sol';\n\n\n//// New supply chain : supplier -> transporter -> manufacturer -> transporter -> whole-saler -> transporter -> distributor -> transporter -> customer/hospital/pharmacy\n\ncontract SupplyChain {\n    \n    address Owner;\n    \n    constructor()  {\n        Owner = msg.sender;\n    }\n    \n    modifier onlyOwner() {\n        require(Owner == msg.sender);\n        _;\n    }\n    \n    modifier checkUser(address addr) {\n        require(addr == msg.sender);\n        _;\n    }\n    \n    enum roles {\n        noRole,\n        supplier,\n        transporter,\n        manufacturer,\n        wholesaler,\n        distributor,\n        customer\n    }\n    \n    \n    //////////////// Events ////////////////////\n    \n    event UserRegister(address indexed _address, bytes32 name);\n    event buyEvent(address buyer, address indexed seller, address packageAddr, bytes signature, uint indexed timestamp);\n    event respondEvent(address indexed buyer, address seller, address packageAddr, bytes signature, uint indexed timestamp);\n    event sendEvent(address seller, address buyer, address indexed packageAddr, bytes signature, uint indexed timestamp);\n    event receivedEvent(address indexed buyer, address seller, address packageAddr, bytes signature, uint indexed timestamp);\n    \n    \n    //////////////// Event functions (All entities) ////////////////////\n\n    \n    function requestProduct(address buyer, address seller, address packageAddr, bytes memory signature) public {\n        emit buyEvent(buyer, seller, packageAddr, signature, block.timestamp);\n    }\n    \n    function respondToEntity(address buyer, address seller, address packageAddr, bytes memory signature) public {\n        emit respondEvent(buyer, seller, packageAddr, signature, block.timestamp);\n    }\n    \n    function sendPackageToEntity(address buyer, address seller, address packageAddr, bytes memory signature) public {\n        emit sendEvent(seller, buyer, packageAddr, signature, block.timestamp);\n    }\n    \n    /////////////// Users (Only Owner Executable) //////////////////////\n    \n    struct userData {\n        bytes32 name;\n        string[] userLoc;\n        roles role;\n        address userAddr;\n    }\n    \n    mapping (address => userData) public userInfo;\n    \n    function registerUser(bytes32 name, string[] memory loc, uint role, address _userAddr) public onlyOwner {\n        userInfo[_userAddr].name = name;\n        userInfo[_userAddr].userLoc = loc;\n        userInfo[_userAddr].role = roles(role);\n        userInfo[_userAddr].userAddr = _userAddr;\n        \n        emit UserRegister(_userAddr, name);\n    }\n    \n    function changeUserRole(uint _role, address _addr) public onlyOwner returns(string memory) {\n        userInfo[_addr].role = roles(_role);\n       return \"Role Updated!\";\n    }\n    \n    function getUserInfo(address _address) public view returns(\n        userData memory\n        ) {\n        return userInfo[_address];\n    }\n    \n\n    /////////////// Supplier //////////////////////\n    \n    mapping (address => address[]) public supplierRawMaterials;\n    \n    \n    function createRawMaterialPackage(\n        bytes32 _description,\n        uint _quantity,\n        address _transporterAddr,\n        address _manufacturerAddr\n    ) public returns(address) {\n\n        RawMaterial rawMaterial = new RawMaterial(\n            msg.sender,\n            address(bytes20(sha256(abi.encodePacked(msg.sender, block.timestamp)))),\n            _description,\n            _quantity,\n            _transporterAddr,\n            _manufacturerAddr\n        );\n        \n        supplierRawMaterials[msg.sender].push(address(rawMaterial));\n        return address(rawMaterial);\n    }\n    \n    function getNoOfPackagesOfSupplier() public view returns(uint) {\n        return supplierRawMaterials[msg.sender].length;\n    }\n    \n    \n    function getAllPackages() public view returns(address[] memory) {\n        uint len = supplierRawMaterials[msg.sender].length;\n        address[] memory ret = new address[](len);\n        for (uint i = 0; i < len; i++) {\n            ret[i] = supplierRawMaterials[msg.sender][i];\n        }\n        return ret;\n    }\n    \n    ///////////////  Transporter ///////////////\n    \n    \n    function transporterHandlePackage(\n        address _addr,\n        uint transportertype,\n        address cid\n        ) public {\n            \n        require(\n            userInfo[msg.sender].role == roles.transporter,\n            \"Only Transporter can call this function\"\n        );\n        require(\n            transportertype > 0,\n            \"Transporter Type is incorrect\"\n        );\n        \n        if(transportertype == 1) { \n            /// Supplier -> Manufacturer\n            RawMaterial(_addr).pickPackage(msg.sender);\n        } else if(transportertype == 2) { \n            /// Manufacturer -> Wholesaler\n            Medicine(_addr).pickMedicine(msg.sender);\n        } else if(transportertype == 3) {   \n            // Wholesaler to Distributor\n            MedicineW_D(cid).pickWD(_addr, msg.sender);\n        } else if(transportertype == 4) {   \n            // Distrubutor to Customer\n            MedicineD_C(cid).pickDC(_addr, msg.sender);\n        }\n    }\n    \n    \n    ///////////////  Manufacturer ///////////////\n    \n    mapping (address => address[]) public manufacturerRawMaterials;\n    mapping (address => address[]) public manufacturerMedicines;\n    \n    \n    function manufacturerReceivedPackage(\n        address _addr,\n        address _manufacturerAddress,\n        address _sellerAddr,\n        bytes memory signature\n        ) public {\n            \n        RawMaterial(_addr).receivedPackage(_manufacturerAddress);\n        manufacturerRawMaterials[_manufacturerAddress].push(_addr);\n        emit receivedEvent(msg.sender, _sellerAddr, _addr, signature, block.timestamp);\n    }\n    \n    function getAllRawMaterials() public view returns(address[] memory) {\n        uint len = manufacturerRawMaterials[msg.sender].length;\n        address[] memory ret = new address[](len);\n        for (uint i = 0; i < len; i++) {\n            ret[i] = manufacturerRawMaterials[msg.sender][i];\n        }\n        return ret;\n    }\n\n    function manufacturerCreatesMedicine(\n        address _manufacturerAddr,\n        bytes32 _description,\n        address[] memory _rawAddr,\n        uint _quantity,\n        address[] memory _transporterAddr\n        ) public {\n            \n        Medicine _medicine = new Medicine(\n            _manufacturerAddr,\n            _description,\n            _rawAddr,\n            _quantity,\n            _transporterAddr\n        );\n        \n        manufacturerMedicines[_manufacturerAddr].push(address(_medicine));\n        \n    }\n    \n    function getAllCreatedMedicines() public view returns(address[] memory) {\n        uint len = manufacturerMedicines[msg.sender].length;\n        address[] memory ret = new address[](len);\n        for (uint i = 0; i < len; i++) {\n            ret[i] = manufacturerMedicines[msg.sender][i];\n        }\n        return ret;\n    }\n    \n\n    ///////////////  Wholesaler  ///////////////\n\n    mapping(address => address[]) public MedicinesAtWholesaler;\n    mapping(address => address[]) public MedicineWtoD;\n    mapping(address => address) public MedicineWtoDTxContract;\n    \n    function wholesalerReceivedMedicine(\n        address _address,\n        address _sellerAddr,\n        bytes memory signature\n        ) public {\n        require(\n            userInfo[msg.sender].role == roles.wholesaler,\n            \"Only Wholesaler can call this function\"\n        );\n        \n        // uint rtype = Medicine(_address).receivedMedicine(msg.sender);\n        MedicinesAtWholesaler[msg.sender].push(_address);\n        emit receivedEvent(msg.sender, _sellerAddr, _address, signature, block.timestamp);\n    }\n    \n    function transferMedicineWtoD(\n            address _address,\n            address transporter,\n            address receiver\n        ) public {\n            \n        MedicineW_D wd = new MedicineW_D(\n            _address,\n            msg.sender,\n            transporter,\n            receiver\n        );\n        MedicineWtoD[msg.sender].push(address(wd));\n        MedicineWtoDTxContract[_address] = address(wd);\n    }\n\n    \n    function getBatchIdByIndexWD(uint index) public view returns(address packageID) {\n        require(\n            userInfo[msg.sender].role == roles.wholesaler,\n            \"Only Wholesaler Can call this function.\"\n        );\n        return MedicineWtoD[msg.sender][index];\n    }\n\n    function getSubContractWD(address _address) public view returns (address SubContractWD) {\n        return MedicineWtoDTxContract[_address];\n    }\n    \n    function getAllMedicinesAtWholesaler() public view returns(address[] memory) {\n        uint len = MedicinesAtWholesaler[msg.sender].length;\n        address[] memory ret = new address[](len);\n        for (uint i = 0; i < len; i++) {\n            ret[i] = MedicinesAtWholesaler[msg.sender][i];\n        }\n        return ret;\n    }\n\n\n//     ///////////////  Distributor  ///////////////\n\n    mapping(address => address[]) public MedicinesAtDistributor;\n    mapping(address => address[]) public MedicineDtoC;\n    mapping(address => address) public MedicineDtoCTxContract;\n\n\n    function distributorReceivedMedicine(\n      address _address,\n      address cid,\n      address _sellerAddr,\n      bytes memory signature\n    ) public {\n        require(\n            userInfo[msg.sender].role == roles.distributor &&\n            msg.sender == Medicine(_address).getWDC()[1],\n            \"Only Distributor or current owner of package can call this function\"  \n        );\n        \n        uint rtype = Medicine(_address).receivedMedicine(msg.sender);\n        if(rtype == 2){\n            MedicinesAtDistributor[msg.sender].push(_address);\n            if(Medicine(_address).getWDC()[0] != address(0)){\n                MedicineW_D(cid).receiveWD(_address, msg.sender);\n            }\n        }\n        emit receivedEvent(msg.sender, _sellerAddr, _address, signature, block.timestamp);\n    }\n\n    function distributorTransferMedicinetoCustomer(\n        address _address,\n        address transporter,\n        address receiver\n    ) public {\n        require(\n            userInfo[msg.sender].role == roles.distributor &&\n            msg.sender == Medicine(_address).getWDC()[1],\n            \"Only Distributor or current owner of package can call this function\"\n        );\n        MedicineD_C dp = new MedicineD_C(\n            _address,\n            msg.sender,\n            transporter,\n            receiver\n        );\n        MedicineDtoC[msg.sender].push(address(dp));\n        MedicineDtoCTxContract[_address] = address(dp);\n    }\n    \n    function getBatchesCountDC() public view returns (uint count){\n        require(\n            userInfo[msg.sender].role == roles.distributor,\n            \"Only Distributor Can call this function.\"\n        );\n        return MedicineDtoC[msg.sender].length;\n    }\n\n    function getBatchIdByIndexDC(uint index) public view returns(address packageID) {\n        require(\n            userInfo[msg.sender].role == roles.distributor,\n            \"Only Distributor Can call this function.\"\n        );\n        return MedicineDtoC[msg.sender][index];\n    }\n\n    function getSubContractDC(address _address) public view returns (address SubContractDP) {\n        return MedicineDtoCTxContract[_address];\n    }\n    \n    function getAllMedicinesAtDistributor() public view returns(address[] memory) {\n        uint len = MedicinesAtDistributor[msg.sender].length;\n        address[] memory ret = new address[](len);\n        for (uint i = 0; i < len; i++) {\n            ret[i] = MedicinesAtDistributor[msg.sender][i];\n        }\n        return ret;\n    }\n    \n    \n//     ///////////////  Customer  ///////////////\n    \n    \n//     function customerReceivedMedicine(\n//         address _address,\n//         address cid\n//     ) public {\n//         require(\n//             userInfo[msg.sender].role == roles.customer,\n//             \"Only Customer Can call this function.\"\n//         );\n//         medicineRecievedAtCustomer(_address, cid);\n//     }\n\n//     function updateStatus(\n//         address _address,\n//         uint Status\n//     ) public {\n//         require(\n//             userInfo[msg.sender].role == roles.customer &&\n//             msg.sender == Medicine(_address).getWDC()[2],\n//             \"Only Customer or current owner of package can call this function\"\n//         );\n//         require(sale[_address] == salestatus(1), \"Medicine Must be at Customer\");\n        \n//         updateSaleStatus(_address, Status);\n//     }\n\n//     function getSalesInfo(\n//         address _address\n//     ) public\n//     view\n//     returns(\n//         uint Status \n//     ){\n//         return salesInfo(_address);\n//     }\n\n    \n//     function getBatchesCountC() public view returns(uint count) {\n//         require(\n//             userInfo[msg.sender].role == roles.customer,\n//             \"Only Wholesaler or current owner of package can call this function\"\n//         );\n//         return  MedicineBatchAtCustomer[msg.sender].length;\n//     }\n\n//     function getBatchIdByIndexC(uint index) public view returns(address _address) {\n//         require(\n//             userInfo[msg.sender].role == roles.customer,\n//             \"Only Wholesaler or current owner of package can call this function\"\n//         );\n//         return MedicineBatchAtCustomer[msg.sender][index];\n//     }\n    \n    function verify(address p, bytes32 hash, uint8 v, bytes32 r, bytes32 s) public pure returns(bool) {\n        return ecrecover(hash, v, r, s) == p;\n    }   \n}\n    ",
  "sourcePath": "D:\\downloads\\project code\\Pharma-Chain-master\\Pharma-Chain-master\\blockchain\\testing\\Testing.sol",
  "compiler": {
    "name": "solc",
    "version": "0.8.13+commit.abaa5c0e.Emscripten.clang"
  },
  "schemaVersion": "3.4.16",
  "updatedAt": "2024-04-02T08:01:46.782Z",
  "networkType": "ethereum",
  "devdoc": {
    "kind": "dev",
    "methods": {},
    "version": 1
  },
  "userdoc": {
    "kind": "user",
    "methods": {},
    "version": 1
  }
}