{
  "contractName": "Transactions",
  "abi": [
    {
      "inputs": [
        {
          "internalType": "address",
          "name": "_creator",
          "type": "address"
        }
      ],
      "stateMutability": "nonpayable",
      "type": "constructor"
    },
    {
      "anonymous": false,
      "inputs": [
        {
          "indexed": false,
          "internalType": "bytes32",
          "name": "_txnHash",
          "type": "bytes32"
        },
        {
          "indexed": false,
          "internalType": "address",
          "name": "_from",
          "type": "address"
        },
        {
          "indexed": false,
          "internalType": "address",
          "name": "_to",
          "type": "address"
        },
        {
          "indexed": false,
          "internalType": "bytes32",
          "name": "_prev",
          "type": "bytes32"
        },
        {
          "indexed": false,
          "internalType": "uint256",
          "name": "_timestamp",
          "type": "uint256"
        },
        {
          "indexed": false,
          "internalType": "string",
          "name": "_latitude",
          "type": "string"
        },
        {
          "indexed": false,
          "internalType": "string",
          "name": "_longitude",
          "type": "string"
        }
      ],
      "name": "txnCreated",
      "type": "event"
    },
    {
      "inputs": [
        {
          "internalType": "uint256",
          "name": "",
          "type": "uint256"
        }
      ],
      "name": "transactions",
      "outputs": [
        {
          "internalType": "bytes32",
          "name": "txnHash",
          "type": "bytes32"
        },
        {
          "internalType": "address",
          "name": "fromAddr",
          "type": "address"
        },
        {
          "internalType": "address",
          "name": "toAddr",
          "type": "address"
        },
        {
          "internalType": "bytes32",
          "name": "prevTxn",
          "type": "bytes32"
        },
        {
          "internalType": "string",
          "name": "latitude",
          "type": "string"
        },
        {
          "internalType": "string",
          "name": "longitude",
          "type": "string"
        },
        {
          "internalType": "uint256",
          "name": "timestamp",
          "type": "uint256"
        }
      ],
      "stateMutability": "view",
      "type": "function"
    },
    {
      "inputs": [],
      "name": "txnCount",
      "outputs": [
        {
          "internalType": "uint256",
          "name": "",
          "type": "uint256"
        }
      ],
      "stateMutability": "view",
      "type": "function"
    },
    {
      "inputs": [
        {
          "internalType": "bytes32",
          "name": "_txnHash",
          "type": "bytes32"
        },
        {
          "internalType": "address",
          "name": "_from",
          "type": "address"
        },
        {
          "internalType": "address",
          "name": "_to",
          "type": "address"
        },
        {
          "internalType": "bytes32",
          "name": "_prev",
          "type": "bytes32"
        },
        {
          "internalType": "string",
          "name": "_latitude",
          "type": "string"
        },
        {
          "internalType": "string",
          "name": "_longitude",
          "type": "string"
        }
      ],
      "name": "createTxnEntry",
      "outputs": [],
      "stateMutability": "nonpayable",
      "type": "function"
    },
    {
      "inputs": [],
      "name": "getAllTransactions",
      "outputs": [
        {
          "components": [
            {
              "internalType": "bytes32",
              "name": "txnHash",
              "type": "bytes32"
            },
            {
              "internalType": "address",
              "name": "fromAddr",
              "type": "address"
            },
            {
              "internalType": "address",
              "name": "toAddr",
              "type": "address"
            },
            {
              "internalType": "bytes32",
              "name": "prevTxn",
              "type": "bytes32"
            },
            {
              "internalType": "string",
              "name": "latitude",
              "type": "string"
            },
            {
              "internalType": "string",
              "name": "longitude",
              "type": "string"
            },
            {
              "internalType": "uint256",
              "name": "timestamp",
              "type": "uint256"
            }
          ],
          "internalType": "struct Transactions.txns[]",
          "name": "",
          "type": "tuple[]"
        }
      ],
      "stateMutability": "view",
      "type": "function"
    }
  ],
  "bytecode": "0x6080604052600060025534801561001557600080fd5b50604051610c56380380610c5683398101604081905261003491610059565b600080546001600160a01b0319166001600160a01b0392909216919091179055610089565b60006020828403121561006b57600080fd5b81516001600160a01b038116811461008257600080fd5b9392505050565b610bbe806100986000396000f3fe608060405234801561001057600080fd5b506004361061004c5760003560e01c806327506f53146100515780633626a3681461006f57806378ce1365146100845780639ace38c21461009b575b600080fd5b6100596100c1565b60405161006691906107e0565b60405180910390f35b61008261007d36600461096a565b610310565b005b61008d60025481565b604051908152602001610066565b6100ae6100a9366004610a01565b6105a0565b6040516100669796959493929190610a1a565b60025460609060008167ffffffffffffffff8111156100e2576100e26108c7565b60405190808252806020026020018201604052801561014857816020015b6040805160e0810182526000808252602080830182905292820181905260608083018290526080830181905260a083015260c082015282526000199092019101816101005790505b50905060005b8281101561030957600081815260016020818152604092839020835160e08101855281548152928101546001600160a01b0390811692840192909252600281015490911692820192909252600382015460608201526004820180549192916080840191906101bb90610a7a565b80601f01602080910402602001604051908101604052809291908181526020018280546101e790610a7a565b80156102345780601f1061020957610100808354040283529160200191610234565b820191906000526020600020905b81548152906001019060200180831161021757829003601f168201915b5050505050815260200160058201805461024d90610a7a565b80601f016020809104026020016040519081016040528092919081815260200182805461027990610a7a565b80156102c65780601f1061029b576101008083540402835291602001916102c6565b820191906000526020600020905b8154815290600101906020018083116102a957829003601f168201915b505050505081526020016006820154815250508282815181106102eb576102eb610ab4565b6020026020010181905250808061030190610ae0565b91505061014e565b5092915050565b60025442906000036103f2576040805160e0810182528881526001600160a01b038089166020808401918252898316848601908152606085018a8152608086018a815260a087018a905260c08701899052600280546000908152600180875299902088518155955198860180549988166001600160a01b03199a8b161790559251928501805493909616929097169190911790935591516003820155925180519293926103c392600485019201906106fa565b5060a082015180516103df9160058401916020909101906106fa565b5060c0820151816006015590505061053b565b836001600060016002546104069190610af9565b815260200190815260200160002060000154146104695760405162461bcd60e51b815260206004820152601b60248201527f5472616e73616374696f6e206572726f72206f63637572726564210000000000604482015260640160405180910390fd5b6040805160e0810182528881526001600160a01b038089166020808401918252898316848601908152606085018a8152608086018a815260a087018a905260c08701899052600280546000908152600180875299902088518155955198860180549988166001600160a01b03199a8b1617905592519285018054939096169290971691909117909355915160038201559251805192939261051092600485019201906106fa565b5060a0820151805161052c9160058401916020909101906106fa565b5060c082015181600601559050505b60016002600082825461054e9190610b10565b90915550506040517f30d01d358fb0899fe4d50947b2e9301c952d9eed09b14c7ecdcbeed4434557c49061058f90899089908990899087908a908a90610b28565b60405180910390a150505050505050565b6001602081905260009182526040909120805491810154600282015460038301546004840180546001600160a01b0394851695949093169391926105e390610a7a565b80601f016020809104026020016040519081016040528092919081815260200182805461060f90610a7a565b801561065c5780601f106106315761010080835404028352916020019161065c565b820191906000526020600020905b81548152906001019060200180831161063f57829003601f168201915b50505050509080600501805461067190610a7a565b80601f016020809104026020016040519081016040528092919081815260200182805461069d90610a7a565b80156106ea5780601f106106bf576101008083540402835291602001916106ea565b820191906000526020600020905b8154815290600101906020018083116106cd57829003601f168201915b5050505050908060060154905087565b82805461070690610a7a565b90600052602060002090601f016020900481019282610728576000855561076e565b82601f1061074157805160ff191683800117855561076e565b8280016001018555821561076e579182015b8281111561076e578251825591602001919060010190610753565b5061077a92915061077e565b5090565b5b8082111561077a576000815560010161077f565b6000815180845260005b818110156107b95760208185018101518683018201520161079d565b818111156107cb576000602083870101525b50601f01601f19169290920160200192915050565b60006020808301818452808551808352604092508286019150828160051b87010184880160005b8381101561089d57888303603f19018552815180518452878101516001600160a01b03908116898601528782015116878501526060808201519085015260808082015160e0828701819052919061086083880182610793565b9250505060a0808301518683038288015261087b8382610793565b60c0948501519790940196909652505094870194925090860190600101610807565b509098975050505050505050565b80356001600160a01b03811681146108c257600080fd5b919050565b634e487b7160e01b600052604160045260246000fd5b600082601f8301126108ee57600080fd5b813567ffffffffffffffff80821115610909576109096108c7565b604051601f8301601f19908116603f01168101908282118183101715610931576109316108c7565b8160405283815286602085880101111561094a57600080fd5b836020870160208301376000602085830101528094505050505092915050565b60008060008060008060c0878903121561098357600080fd5b86359550610993602088016108ab565b94506109a1604088016108ab565b935060608701359250608087013567ffffffffffffffff808211156109c557600080fd5b6109d18a838b016108dd565b935060a08901359150808211156109e757600080fd5b506109f489828a016108dd565b9150509295509295509295565b600060208284031215610a1357600080fd5b5035919050565b8781526001600160a01b038781166020830152861660408201526060810185905260e060808201819052600090610a5390830186610793565b82810360a0840152610a658186610793565b9150508260c083015298975050505050505050565b600181811c90821680610a8e57607f821691505b602082108103610aae57634e487b7160e01b600052602260045260246000fd5b50919050565b634e487b7160e01b600052603260045260246000fd5b634e487b7160e01b600052601160045260246000fd5b600060018201610af257610af2610aca565b5060010190565b600082821015610b0b57610b0b610aca565b500390565b60008219821115610b2357610b23610aca565b500190565b8781526001600160a01b03878116602083015286166040820152606081018590526080810184905260e060a08201819052600090610b6890830185610793565b82810360c0840152610b7a8185610793565b9a995050505050505050505056fea2646970667358221220fcf436a1698cfe8cc4f564df70520d77bd06b1cbdf8312e63f9312a68399669464736f6c634300080d0033",
  "immutableReferences": {},
  "source": "// SPDX-License-Identifier: MIT\npragma solidity ^0.8.13;\npragma experimental ABIEncoderV2;\n\ncontract Transactions {\n    \n    address Creator;\n    \n    struct txns {\n        bytes32 txnHash;\n        address fromAddr;\n        address toAddr;\n        bytes32 prevTxn;\n        string latitude;\n        string longitude;\n        uint timestamp;\n    }\n    \n    mapping(uint => txns) public transactions;\n    uint public txnCount = 0;\n    \n    constructor(address _creator) {\n        Creator = _creator;\n    }\n    \n    event txnCreated(bytes32 _txnHash, address _from, address _to, bytes32 _prev, uint _timestamp, string _latitude, string _longitude);\n    \n    function createTxnEntry(bytes32 _txnHash, address _from, address _to, bytes32 _prev, string memory _latitude, string memory _longitude) public {\n        uint _timestamp = block.timestamp;\n        if(txnCount == 0) {\n            transactions[txnCount] = txns(_txnHash, _from, _to, _prev, _latitude, _longitude, _timestamp);\n        } else {\n            require(transactions[txnCount - 1].txnHash == _prev, \"Transaction error occurred!\");\n            transactions[txnCount] = txns(_txnHash, _from, _to, _prev, _latitude, _longitude, _timestamp);\n        }\n        txnCount += 1;\n        emit txnCreated(_txnHash, _from, _to, _prev, _timestamp, _latitude, _longitude);\n    }\n\n    function getAllTransactions() public view returns(txns[] memory) {\n        uint len = txnCount;\n        txns[] memory ret = new txns[](len);\n        for (uint i = 0; i < len; i++) {\n            ret[i] = transactions[i];\n        }\n        return ret;    \n    }\n}",
  "sourcePath": "D:\\downloads\\project code\\Pharma-Chain-master\\Pharma-Chain-master\\blockchain\\testing\\Transactions.sol",
  "compiler": {
    "name": "solc",
    "version": "0.8.13+commit.abaa5c0e.Emscripten.clang"
  },
  "schemaVersion": "3.4.16",
  "updatedAt": "2024-04-02T08:01:41.392Z",
  "devdoc": {
    "kind": "dev",
    "methods": {},
    "version": 1
  },
  "userdoc": {
    "kind": "user",
    "methods": {},
    "version": 1
  }
}